:100000000C9428010C9459010C9459010C94590139
:100010000C9459010C9459010C9459010C945901F8
:100020000C9459010C9459010C9459010C945901E8
:100030000C9459010C9459010C9459010C945901D8
:100040000C9459010C9459010C9459010C945901C8
:100050000C9459010C9459010C9459010C94AE0460
:100060000C9459010C9422050C94F8040C94590139
:100070000C9459010C9459010C9459010C94590198
:100080000C9459010C9459010C9459010C94590188
:100090000C9459010C9459010C9459010C94590178
:1000A0000C9459010C9459010C9459010C94590168
:1000B0000C9459010C9459010C9459010C94590158
:1000C0000C9459010C9459010C9459010C94590148
:1000D0000C9459010C9459010C9459010C94590138
:1000E0000C9459010C94AA010C9400020C94C901BF
:1000F0000C942B020C94E8010C94F6010C94EE0184
:100100000C94E4010C94D6010C94D0010C94E00101
:100110000C9401030C9467020C94FC010C94580598
:100120000C94C9020C94C1010C94C5010C944E03AB
:100130000C94F2010C94AF010C94DA010C94580267
:100140000C94BB020C94CD0100000A0B02090C0DAB
:100150000E0807030401000000000000000000007A
:10016000000000000000000000000000000000008F
:10017000000000001211100000000000000000004C
:10018000000000000000000000000000000000006F
:100190002200250028002B002E003100340002012F
:1001A0000000050108010B010000210024002700C8
:1001B0002A002D0030003300010100000401070176
:1001C0000A010505050507050808080802020202DC
:1001D0000A0A0808040404040101010101010101E3
:1001E0000303030303030303040707070C0C0C0CAE
:1001F0000C0C0C0C02020202060606060606060697
:100200000B0B0B0B0B0B0B0B010210202008081023
:100210002040102040800201020108040201010276
:10022000040810204080804020100804020180044F
:1002300002018040201008040201080402010102AA
:100240000408102040800102040810204080580556
:1002500011241FBECFEFD1E2DEBFCDBF00E00CBF47
:1002600020E1A2E6B3E001C01D92A838B207E1F791
:1002700013E0A0E0B2E0EEEBF7E100E00BBF02C05C
:1002800007900D92A236B107D9F711E0C8E2D1E08C
:1002900000E006C021970109802FFE010E94B009ED
:1002A000C732D10780E00807A9F70E9409060C941D
:1002B000DD0B0C94000090E0FC01E85FFD4F249101
:1002C0008E539E4FFC018491882399F090E0880F13
:1002D000991FFC01E855FE4FA591B491FC01E2572E
:1002E000FE4F859194918FB7F894EC91E22BEC93AB
:1002F0008FBF0895282F30E0F901E85BFE4F9491FD
:10030000F901E85FFD4F44912E533E4FF9012491CE
:10031000222309F435C0992311F191509231F8F458
:10032000E92FF0E08827E856FE4F8F4F0C94B00974
:10033000C901CD01AA01C101C501AF01D001D6019A
:10034000DA01E001E401E801EE01F201AF01F6019A
:10035000FC010002809180008F7780938000E22F63
:10036000F0E0EE0FFF1FE257FE4FA591B4918FB75B
:10037000F894EC91611148C040954E234C938FBF87
:100380000895809180008F7DE8CF80918000877FE5
:10039000E4CF84B58F7784BDE2CF84B58F7DFBCF6A
:1003A0008091B0008F778093B000D9CF8091B0005A
:1003B0008F7DF9CF809190008F7780939000CFCF81
:1003C000809190008F7DF9CF80919000877FF5CF4D
:1003D0008091A0008F778093A000C1CF8091A00072
:1003E0008F7DF9CF8091A000877FF5CF809120018C
:1003F0008F7780932001B3CF809120018F7DF9CF3B
:1004000080912001877FF5CF4E2BB8CF3FB7F8946E
:100410008091870F9091880FA091890FB0918A0FDA
:1004200026B5A89B05C02F3F19F00196A11DB11D4F
:100430003FBFBA2FA92F982F8827BC01CD01620F8B
:10044000711D811D911D42E0660F771F881F991F46
:100450004A95D1F70895AF92BF92CF92DF92EF9273
:10046000FF920F931F93CF93DF936C017B018B015E
:10047000040F151FEB015E01AE18BF08C017D107AE
:1004800059F06991D601ED91FC910190F081E02D38
:10049000C6011995892B79F7C501DF91CF911F917D
:1004A0000F91FF90EF90DF90CF90BF90AF900895A5
:1004B000FC01538D448D252F30E0842F90E0821B6A
:1004C000930B541710F0CF96089501970895FC01EF
:1004D000918D828D981761F0A28DAE0FBF2FB11D47
:1004E0005D968C91928D9F5F9F73928F90E008959F
:1004F0008FEF9FEF08952FB7F89480918B0F909115
:100500008C0FA0918D0FB0918E0F2FBF8093970FFE
:100510009093980FA093990FB0939A0F8FE89FE054
:100520000E94670297FF26C02FB7F89480918B0F27
:1005300090918C0FA0918D0FB0918E0F2FBF409195
:10054000970F5091980F6091990F70919A0F841B9B
:10055000950BA60BB70B4091930F5091940F6091A0
:10056000950F7091960F84179507A607B707B0F2FD
:100570008FEF9FEF0895FC01918D828D981731F0D8
:10058000828DE80FF11D858D90E008958FEF9FEF2C
:100590000895FC01918D228D892F90E0805C9F4F02
:1005A000821B91098F73992708958FE89FE00E941D
:1005B000C90221E0892B09F420E0822F0895FC0173
:1005C000A48DA80FB92FB11DA35ABF4F2C91848DB4
:1005D00090E001968F739927848FA689B7892C9311
:1005E000A089B1898C91837080648C93938D848D64
:1005F000981306C00288F389E02D80818F7D808367
:100600000895EF92FF920F931F93CF93DF93EC0126
:1006100081E0888F9B8D8C8D98131AC0E889F989A9
:10062000808185FF15C09FB7F894EE89FF896083AC
:10063000E889F98980818370806480839FBF81E02D
:1006400090E0DF91CF911F910F91FF90EF9008956F
:10065000F62E0B8D10E00F5F1F4F0F731127E02E4A
:100660008C8D8E110CC00FB607FCFACFE889F98982
:10067000808185FFF5CFCE010E94DF02F1CFEB8DA7
:10068000EC0FFD2FF11DE35AFF4FF0829FB7F89456
:100690000B8FEA89FB8980818062CFCFCF93DF9374
:1006A000EC01888D8823B9F0AA89BB89E889F9898A
:1006B0008C9185FD03C0808186FD0DC00FB607FCBF
:1006C000F7CF8C9185FFF2CF808185FFEDCFCE01F2
:1006D0000E94DF02E9CFDF91CF91089580E090E0A2
:1006E000892B29F00E94D50281110E94000080E030
:1006F00090E0892B49F080E090E0892B29F00E945E
:10070000000081110E94000080E090E0892B49F0F8
:1007100080E090E0892B29F00E94000081110E9466
:10072000000080E090E0892B49F080E090E0892B88
:1007300029F00E94000081110C94000008958F920E
:100740009F92BF92CF92DF92EF92FF920F931F93EF
:10075000CF93DF9320914A0F30914B0FA9014A5D4F
:10076000524F6A01F901E25CF64F7F0189010A5A92
:100770001A4F4B01A9014E5C544FE901C65BD84F9B
:10078000D901AE59BC4FBC01685F7F4FFC01B190ED
:10079000CF01F601B1926F01F701B1927F01F8012B
:1007A000B1928F01F401B1904F01FA01B192AF0102
:1007B000B992BD928617970749F7285F3F4F30934C
:1007C0004B0F20934A0FDF91CF911F910F91FF9014
:1007D000EF90DF90CF90BF909F908F900895CF9231
:1007E000DF92EF92FF920F931F93CF93DF931F92AD
:1007F0001F92CDB7DEB769834A83880F991F009196
:10080000821010918310000F111FECE2F0E19F01A4
:100810002C5230412017310714F41192F8CF29815E
:10082000FC01E45DFF4E21838A81808360E080913A
:1008300080100E947A011016110604F5015011096A
:10084000F801E45DFF4EE080D0907E10C0907C10F7
:1008500088E0F82E6E2D661F6627661F8C2D0E947D
:100860007A01EE0C61E08D2D0E947A0160E08D2D01
:100870000E947A01FA94F110EDCFDDCF61E0809112
:1008800080100F900F90DF91CF911F910F91FF90EB
:10089000EF90DF90CF900C947A01EF92FF920F933C
:1008A0001F93CF937C018C0183E0000F111F8A9569
:1008B000E1F7045C1F4EC1E0F80111928F0140E0A6
:1008C0006C2FC7010E94EF03CF5FC930A9F7CF910A
:1008D0001F910F91FF90EF90089520918210309119
:1008E0008310821793078CF46830710571F0FC0156
:1008F00023E0EE0FFF1F2A95E1F7E45DFF4EE60FC0
:10090000F71F408B6F5F0C94EF0308950F931F93B5
:10091000CF93DF93EC0188819981009759F02A8168
:100920003B812617370730F081E0DF91CF911F918F
:100930000F9108958B016F5F7F4F0E94DD0A009732
:1009400059F0998388831B830A832C813D81232B53
:1009500059F7FC011082E8CF80E0E7CF1F920F9299
:100960000FB60F9211242F933F938F939F93AF93C2
:10097000BF9380918B0F90918C0FA0918D0FB091B0
:100980008E0F3091860F23E0230F2D3758F50196F7
:10099000A11DB11D2093860F80938B0F90938C0F18
:1009A000A0938D0FB0938E0F8091870F9091880F39
:1009B000A091890FB0918A0F0196A11DB11D80935E
:1009C000870F9093880FA093890FB0938A0FBF91E0
:1009D000AF919F918F913F912F910F900FBE0F90EC
:1009E0001F90189526E8230F0296A11DB11DD2CFA6
:1009F0001F920F920FB60F9211240BB60F922F93E6
:100A00003F934F935F936F937F938F939F93AF9396
:100A1000BF93EF93FF938FE89FE00E94DF02FF9167
:100A2000EF91BF91AF919F918F917F916F915F9166
:100A30004F913F912F910F900BBE0F900FBE0F90D3
:100A40001F9018951F920F920FB60F9211240BB69C
:100A50000F922F938F939F93EF93FF93E0919F0FAC
:100A6000F091A00F8081E091A50FF091A60F82FD7B
:100A70001DC090818091A80F8F5F8F732091A90F67
:100A8000821741F0E091A80FF0E0E157F04F958F09
:100A90008093A80FFF91EF919F918F912F910F90CD
:100AA0000BBE0F900FBE0F901F9018958081F2CF54
:100AB000CF93DF931092920F1092910F88EE93E0F4
:100AC000A0E0B0E08093930F9093940FA093950FC4
:100AD000B093960F82E593E09093900F80938F0FE1
:100AE00085EC90E090939C0F80939B0F84EC90E0BA
:100AF00090939E0F80939D0F80EC90E09093A00FB9
:100B000080939F0F81EC90E09093A20F8093A10FB0
:100B100082EC90E09093A40F8093A30F86EC90E07A
:100B20009093A60F8093A50F1092A80F1092A90F73
:100B30001092AA0F1092AB0FCBE0D0E0D0937D10B3
:100B4000C0937C108DE090E090937F1080937E1096
:100B50008AE090E0909381108093801086E090E08E
:100B600090938310809382108BE00E945B018091B0
:100B70007E100E945B01809180100E945B0161E009
:100B8000809180100E947A01D0937D10C0937C10D8
:100B9000ECE3F0E1119280E1EC37F807D9F7D0E00F
:100BA000C0E08091821090918310C817D90774F526
:100BB00040E06FE0CE010E94EF038091821090919F
:100BC0008310C817D9072CF447E06BE0CE010E94D0
:100BD000EF0340E069E0CE010E94EF0380918210B4
:100BE00090918310C817D9071CF4CE010E944D04C0
:100BF0008091821090918310C817D9072CF440E09F
:100C00006CE0CE010E94EF032196CBCFDF91CF9114
:100C10000895CF93DF93CDB7DEB768970FB6F894FA
:100C2000DEBF0FBECDBF789484B5826084BD84B52D
:100C3000816084BD85B5826085BD85B5816085BDD7
:100C400080916E00816080936E001092810080918F
:100C50008100826080938100809181008160809317
:100C60008100809180008160809380008091B1003C
:100C700084608093B1008091B00081608093B00067
:100C800080919100826080939100809191008160B9
:100C9000809391008091900081608093900080917A
:100CA000A10082608093A1008091A1008160809367
:100CB000A1008091A00081608093A000809121011B
:100CC00082608093210180912101816080932101C4
:100CD0008091200181608093200180917A0084605E
:100CE00080937A0080917A00826080937A0080916C
:100CF0007A00816080937A0080917A008068809386
:100D00007A001092C100E0919F0FF091A00F82E055
:100D10008083E0919B0FF0919C0F1082E0919D0FDA
:100D2000F0919E0F8FEC80831092A70FE091A30F9C
:100D3000F091A40F86E08083E091A10FF091A20FC3
:100D4000808180618083E091A10FF091A20F80816A
:100D500088608083E091A10FF091A20F808180686C
:100D60008083E091A10FF091A20F80818F7D80831D
:100D700082E00E945B0160E082E00E947A0110E064
:100D800000E08091821090918310081719072CF4CD
:100D900041E06CE0C8010E94EF03809182109091C5
:100DA0008310081719072CF444E06AE0C8010E9478
:100DB000EF038091821090918310081719071CF49B
:100DC000C8010E944D040F5F1F4F06301105C9F680
:100DD0008FE89FE00E94C902892B09F4BEC21A82E3
:100DE00019821C821B821E821D8270E060E0CE018F
:100DF00001960E94860429813A8181112EC0211515
:100E0000310519F0C9010E94540A1A8219821E8202
:100E10001D821C821B820E947B020D811E8197FD18
:100E200024C08A30910509F18F8318860F5F1F4F08
:100E3000B801CE0101960E948604882361F32981BE
:100E40003A818D819E81BE01695F7F4F820F931F22
:100E50000E94C70B1E830D83DECF1E821D8260E6BB
:100E600073E0C9010E94C70BD6CF0115110509F423
:100E70006EC269817A81DB018C91882309F467C293
:100E8000EDB7FEB7F88FEF8B1093850F0093840FAB
:100E9000C80101962DB73EB7281B390B0FB6F89441
:100EA0003EBF0FBE2DBF4DB75EB74F5F5F4F7A019C
:100EB000892B41F0A801C7010E94CE0BF701E00F7A
:100EC000F11F10826701C6018E199F0980179107D3
:100ED0000CF0AEC0D6018D916D01803239F464E71B
:100EE0007FE08CE79FE00E949F03EDCF813229F4E1
:100EF00068E373E080E493E0F6CF823229F46CE695
:100F00007FE080E393E0EFCF833229F460E273E087
:100F100088E293E0E8CF843229F460E173E088E16D
:100F200093E0E1CF853229F460E073E088E093E05C
:100F3000DACF863229F460EF72E088EF92E0D3CF07
:100F4000873229F464E67FE088EE92E0CCCF8832E5
:100F500029F468ED72E080EE92E0C5CF893229F481
:100F600068EC72E080ED92E0BECF8A3229F46CE545
:100F70007FE080EC92E0B7CF8B3229F460EB72E037
:100F800088EB92E0B0CF8C3229F468EA72E084E515
:100F90009FE0A9CF8D3229F468E972E080EA92E0FF
:100FA000A2CF8E3229F460E972E08CE49FE09BCFFF
:100FB0008F3229F460E872E088E892E094CF8033C1
:100FC00029F460E772E088E792E08DCF813329F45D
:100FD00060E672E088E692E086CF823329F460E52D
:100FE00072E088E592E07FCF833329F460E472E019
:100FF00088E492E078CF813429F460E372E088E3FA
:1010000092E071CF883429F460E272E088E292E0E5
:101010006ACF8C3429F460E172E088E192E063CF1A
:101020008F3409F050CF60E072E088E092E05BCF4F
:10103000F12CE12CE0914A0FF0914B0FFA87E987F0
:10104000CF014F968E159F050CF435C192E4892E81
:101050009FE0992E2AE3C22E2FE0D22E32E3432EB8
:101060003FE0532E4AE2A42E4FE0B42E52E2652E0A
:101070005FE0752E6AE1262E6FE0362E3E8A2D8ABD
:101080007C8A6B8ABA8AA98A588A4F86DE86CD8680
:101090009C868B8610E000E0AB85BC854D91BC87BB
:1010A000AB87B80190E080E00E946D04ED85FE857D
:1010B0004191FE87ED87B80181E090E00E946D04C8
:1010C000AF85B8894D91B88BAF87B80182E090E0C9
:1010D0000E946D04E989FA894191FA8BE98BB80184
:1010E00083E090E00E946D04AB89BC894D91BC8B7C
:1010F000AB8BB80184E090E00E946D04ED89FE891D
:101100004191FE8BED8BB80185E090E00E946D046B
:101110000F5F1F4F0830110509F0BECF90E080E04F
:101120008730910509F477C0D40111962C9111975D
:101130002C93F5012181208301965FEF851A950A92
:10114000AFEFAA1ABA0A8830910551F7B8E0EB164A
:10115000F104C4F120914A0F30914B0F90E080E0F0
:101160008730910509F473C0F60141814083D301B2
:1011700011964C9111974C930196BFEFCB1ADB0A55
:10118000EFEF6E1A7E0A8830910551F7F0E1EF1605
:10119000F104C4F090E080E08730910509F471C05B
:1011A000D20111964C9111974C93F10141814083EA
:1011B0000196FFEF4F1A5F0A4FEF241A340A883066
:1011C000910551F70E9406022B013C018CE2882E0A
:1011D00099249394A12CB12C0E94060264197509DC
:1011E00086099709683E734081059105A8F351E08F
:1011F000851A9108A108B10888EE480E83E0581EB0
:10120000611C711C81149104A104B10429F7BFEF82
:10121000EB1AFB0A0FCF2091260D2093490F209146
:10122000320B2093310FA2E3BBE0E6E2FDE09F0129
:1012300026523D4049855A85241735070CF07CCF4E
:101240002181219311962C9111972D93F0CF4091EC
:101250003E094093410F40914A074093290FAAE469
:10126000B7E0EEE3F9E0AF014E53594042175307A0
:101270000CF082CF4181419311964C9111974D937F
:10128000F2CF409156054093390F4091620340934D
:10129000210FA2E6B3E0E6E5F5E0AF014655554083
:1012A000421753070CF084CF4181419311964C9122
:1012B00011974D93F2CFE6E2FDE06EE379E046E56B
:1012C00055E022E33BE08AE497E002E613E0119266
:1012D000DB011D92BD01DA011D92AD01D9011D9204
:1012E0009D01DC011D92CD01D8011D928D01BDE053
:1012F000E835FB0761F7E2E4FFE06AE37FE042E301
:101300005FE02AE23FE082E29FE00AE11FE0119203
:10131000DB011D92BD01DA011D92AD01D9011D92C3
:101320009D01DC011D92CD01D8011D928D01AAE421
:10133000BFE0AE17BF0759F710924B0F10924A0F3C
:10134000EF89F88D0FB6F894FEBF0FBEEDBF89810F
:101350009A81009711F00E94540A0E946E0338CDC2
:10136000EE0FFF1F881F8BBF0790F691E02D199499
:101370000F931F93CF93DF938230910510F482E097
:1013800090E0E0918610F091871030E020E0B0E02E
:10139000A0E0309799F42115310509F44AC0281BC3
:1013A000390B24303105D8F58A819B81611571058F
:1013B00089F1FB0193838283FE0111C04081518139
:1013C0000281138148175907E0F04817590799F42B
:1013D000109761F012960C93129713961C93329605
:1013E000CF01DF91CF911F910F9108950093861047
:1013F00010938710F4CF2115310551F04217530790
:1014000038F0A901DB019A01BD01DF01F801C1CF6C
:10141000EF01F9CF9093871080938610CDCFFE0116
:10142000E20FF31F8193919322503109398328836E
:10143000D7CF2091841030918510232B41F4209137
:101440004A0330914B0330938510209384102091F0
:101450004803309149032115310541F42DB73EB7BA
:1014600040914C0350914D03241B350BE0918410A7
:10147000F0918510E217F307A0F42E1B3F0B2817FD
:10148000390778F0AC014E5F5F4F2417350748F0FD
:101490004E0F5F1F5093851040938410819391935A
:1014A0009FCFF0E0E0E09CCFCF93DF930097E9F08F
:1014B000FC01329713821282A0918610B09187109E
:1014C000ED0130E020E01097A1F420813181820FFE
:1014D000931F20918410309185102817390709F047
:1014E00061C0F0938510E0938410DF91CF9108954F
:1014F000EA01CE17DF07E8F54A815B819E014115BD
:101500005105B1F7E901FB83EA8349915991C40F71
:10151000D51FEC17FD0761F4808191810296840F3D
:10152000951FE90199838883828193819B838A83B4
:10153000F0E0E0E012968D919C9113970097B9F539
:101540002D913C911197CD010296820F931F20910E
:101550008410309185102817390739F6309751F5E6
:101560001092871010928610B0938510A09384106B
:10157000BCCFD383C28340815181840F951FC8178C
:10158000D90761F44E5F5F4F88819981480F591FD9
:10159000518340838A819B81938382832115310506
:1015A00009F0B0CFF0938710E09386109ECFFD0135
:1015B000DC01C0CF13821282D7CF4F925F926F921D
:1015C0007F928F929F92AF92BF92CF92DF92EF92D3
:1015D000FF920F931F93CF93DF938C01009799F4A1
:1015E000CB01DF91CF911F910F91FF90EF90DF9092
:1015F000CF90BF90AF909F908F907F906F905F90B3
:101600004F900C94B809FC01E60FF71F9C01225083
:101610003109E217F30708F4AEC0D901CD91DC918E
:101620001197C617D70720F1C530D10578F0CE0144
:1016300004978617970750F0C61BD70B2297C193C4
:10164000D1936D937C93CF010E94540AC801DF911E
:10165000CF911F910F91FF90EF90DF90CF90BF90AF
:10166000AF909F908F907F906F905F904F90089574
:101670005B01AC1ABD0A4C018C0E9D1EA091861018
:10168000B0918710512C412CF12CE12C109731F5A1
:1016900080918410909185108815990509F05CC09F
:1016A0004616570608F058C08091480390914903A8
:1016B000009741F48DB79EB740914C0350914D0374
:1016C000841B950BE817F90708F055C0F0938510B7
:1016D000E0938410F90171836083B8CF8D919C9160
:1016E000119712966C90129713967C901397A815E9
:1016F000B90559F56C0142E0C40ED11CCA14DB04D3
:1017000020F1AC014A195B09DA011296159780F0B5
:101710006282738251834083D9016D937C93E1147B
:10172000F10471F0D7011396FC93EE9312978ECFCC
:1017300022968C0F9D1FF90191838083F301EFCFD7
:10174000F0938710E093861081CF4816590608F46D
:101750002C017D01D3019ACFCB010E94B8097C01F5
:10176000009749F0AE01B8010E94BE0BC8010E946B
:10177000540A87016BCF10E000E068CFFB01DC0169
:1017800002C001900D9241505040D8F70895FB01DE
:10179000DC0101900D920020E1F70895FB01DC01CE
:1017A0004150504048F001900D920020C9F701C00F
:0E17B0001D9241505040E0F70895F894FFCF8D
:1017BE00003F7CE0E07C3F0000FC3E07073EFC0063
:1017CE0000FFFFFFE0E0E00000FFFFFF0000000071
:1017DE0000FFFF0101FFFF0000FFFF8080FFFF0001
:1017EE0000FFFF0303FFFF0000F8FF8787FFF800ED
:1017FE00007EF0E0F13F3E00007E0F078FFC7C0084
:10180E0000FCFEE7E3E1E000003C1F0787FEFC0062
:10181E0000E0E0FFFFE0E00000080CFFFF0000002A
:10182E00003F7FE0E07F3F0000FCFE0707FEFC006C
:10183E000000707F0F00000000000000F0FE0E00A0
:10184E0000000060600000000000010101010000C6
:10185E0000008080808000000000005838000000EA
:10186E000001010707010100008080E0E080800098
:10187E00000028183E1828000000C0E0783F07003E
:10188E00000003071EFCE00000073F78E0C00000E8
:10189E0000E0FC1E070300000000001E1E000000FA
:1018AE00007E474344286E0000F8381898700000F8
:1018BE00007C7E077370000000000ECEE07E3E00BE
:1018CE00183860FFFF633E1C387CC6FFFF061C18ED
:1018DE000CFFFF0CFFFF0C0C60E0FF7FE0FF7F6052
:1018EE00001E1E001E1E00000000676767670000D6
:1018FE000000FEFEFEFE00000000881080000000CA
:10190E00000001032B0258024E03C9026702BB02FC
:02191E000000C7
:00000001FF
