:100000000C9438010C9469010C9469010C946901F9
:100010000C9469010C9469010C9469010C946901B8
:100020000C9469010C9469010C9469010C946901A8
:100030000C9469010C9469010C9469010C94690198
:100040000C9469010C9469010C9469010C94690188
:100050000C9469010C9469010C9469010C940506D7
:100060000C9469010C94D9060C94AF060C946901A8
:100070000C9469010C9469010C9469010C94690158
:100080000C9469010C9469010C9469010C94690148
:100090000C9479060C944F060C9469010C94690138
:1000A0000C9469010C9469010C9469010C94690128
:1000B0000C9469010C9469010C9469010C94690118
:1000C0000C9469010C9469010C9469010C94690108
:1000D0000C9469010C9469010C9469010C946901F8
:1000E0000C9469010C94B0010C94F1010C94CB01B7
:1000F0000C941D0D0C94C5010C9445030C94D40371
:100100000C94F5010C940F070C94E7010C94D402A5
:100110000C94F0010C94E3020C9487030C94E3011B
:100120000C94BA010C94DD010C94EB010C94BE010B
:100130000C94D9010C9437030C94C2010C94D50192
:100140000C94A7020C94B6010C94CF01000021007E
:10015000240027002A002D00300033000101000098
:10016000040107010A0100002200250028002B00DD
:100170002E003100340002010000050108010B01CE
:10018000000020002300260029002C002F00320050
:100190000001000003010601090105050505070529
:1001A00008080808020202020A0A080804040404F3
:1001B000010101010101010103030303030303031F
:1001C000040707070C0C0C0C0C0C0C0C02020202AE
:1001D00006060606060606060B0B0B0B0B0B0B0B97
:1001E0000102102020080810204010204080020149
:1001F000020108040201010204081020408080402E
:10020000201008040201800402018040201008042C
:1002100002010804020101020408102040800102CA
:1002200004081020408000000A0B02090C0D0E0883
:1002300007030401000000000000000000000000AF
:1002400000000000000000000000000000000000AE
:10025000000012111000000000000000000000006B
:100260000000000000000000000000000F071D0D4E
:1002700011241FBECFEFD1E2DEBFCDBF00E00CBF27
:1002800024E1AAEEB5E001C01D92A532B207E1F764
:1002900015E0A0E0B2E0EAECFEE100E00BBF02C036
:1002A00007900D92AA3EB107D9F711E0C7E3D1E05C
:1002B00000E006C021970109802FFE010E94260D53
:1002C000C633D10780E00807A9F70E9410080C94F4
:1002D000530F0C940000FC01A089B18982E08C933B
:1002E000A485B5851C92A685B7858FEC8C93108E5E
:1002F000A489B58986E08C93A289B3898C918061A9
:100300008C93A289B3898C9188608C93A289B389DC
:100310008C9180688C930288F389E02D80818F7D99
:10032000808308958150823108F05AC0E82FF0E0B0
:100330008827E256FE4F8F4F0C94260DBE01C20156
:10034000B001B601BA01F001C501CB01CF01D50161
:10035000D901DD01E301E701F001EB01F101F50154
:10036000809180008F778093800008958091800035
:100370008F7DF9CF80918000877FF5CF84B58F770F
:1003800084BD089584B58F7DFBCF8091B0008F77B9
:100390008093B00008958091B0008F7DF9CF809157
:1003A00090008F77809390000895809190008F7DCA
:1003B000F9CF80919000877FF5CF8091A0008F7753
:1003C0008093A00008958091A0008F7DF9CF809147
:1003D000A000877FF5CF809120018F778093200147
:1003E0000895809120018F7DF9CF80912001877F32
:1003F000F5CFCF93DF93282F30E0F901EA5DFD4F71
:100400008491F901E052FE4FD491F901E656FE4F76
:10041000C491CC23A1F081110E949201EC2FF0E055
:10042000EE0FFF1FE058FE4FA591B491EC91ED2324
:1004300081E090E009F480E0DF91CF91089580E0C1
:1004400090E0FACF1F93CF93DF93282F30E0F9018C
:10045000EA5DFD4F8491F901E052FE4FD491F9011C
:10046000E656FE4FC491CC23A9F0162F81110E94AD
:100470009201EC2FF0E0EE0FFF1FEA59FE4FA5911D
:10048000B4918FB7F894EC91111108C0D095DE2388
:10049000DC938FBFDF91CF911F910895DE2BF8CFB2
:1004A000CF93DF9390E0FC01E052FE4F24918656FB
:1004B0009E4FFC0184918823D1F090E0880F991F12
:1004C000FC01E45BFE4FA591B491FC01EA59FE4F9B
:1004D000C591D49161110EC09FB7F8948C91E22F11
:1004E000E0958E238C932881E223E8839FBFDF91E0
:1004F000CF9108958FB7F894EC91E22BEC938FBFD6
:10050000F6CF3FB7F8948091811290918212A0911A
:100510008312B091841226B5A89B05C02F3F19F015
:100520000196A11DB11D3FBFBA2FA92F982F882773
:10053000BC01CD01620F711D811D911D42E0660F4E
:10054000771F881F991F4A95D1F708950895AF9294
:10055000BF92CF92DF92EF92FF920F931F93CF93B0
:10056000DF936C017B018B01040F151FEB015E0112
:10057000AE18BF08C017D10759F06991D601ED91A7
:10058000FC910190F081E02DC6011995892B79F736
:10059000C501DF91CF911F910F91FF90EF90DF90F8
:1005A000CF90BF90AF900895FC01538D448D252FBF
:1005B00030E0842F90E0821B930B541710F0CF96FD
:1005C000089501970895FC01918D828D981761F02F
:1005D000A28DAE0FBF2FB11D5D968C91928D9F5F46
:1005E0009F73928F90E008958FEF9FEF08952FB73C
:1005F000F8948091851290918612A0918712B09103
:1006000088122FBF80932E1390932F13A093301333
:10061000B093311386E293E10E94E30297FF26C074
:100620002FB7F8948091851290918612A09187122D
:10063000B09188122FBF40912E1350912F136091CB
:10064000301370913113841B950BA60BB70B40919F
:100650002A1350912B1360912C1370912D13841732
:100660009507A607B707B0F28FEF9FEF0895FC013B
:10067000918D828D981731F0828DE80FF11D858D57
:1006800090E008958FEF9FEF0895FC01918D228DEA
:10069000892F90E0805C9F4F821B91098F7399276F
:1006A000089589E892E10E94450321E0892B09F42D
:1006B00020E0822F089586E293E10E94450321E025
:1006C000892B09F420E0822F0895FC01A48DA80F46
:1006D000B92FB11DA35ABF4F2C91848D90E0019684
:1006E0008F739927848FA689B7892C93A089B189A4
:1006F0008C91837080648C93938D848D981306C045
:100700000288F389E02D80818F7D80830895EF92A8
:10071000FF920F931F93CF93DF93EC0181E0888FBB
:100720009B8D8C8D98131AC0E889F989808185FF8B
:1007300015C09FB7F894EE89FF896083E889F9892D
:1007400080818370806480839FBF81E090E0DF912F
:10075000CF911F910F91FF90EF900895F62E0B8D82
:1007600010E00F5F1F4F0F731127E02E8C8D8E113D
:100770000CC00FB607FCFACFE889F989808185FFA4
:10078000F5CFCE010E946503F1CFEB8DEC0FFD2F6D
:10079000F11DE35AFF4FF0829FB7F8940B8FEA895F
:1007A000FB8980818062CFCFCF93DF93EC01888D6E
:1007B0008823B9F0AA89BB89E889F9898C9185FDDC
:1007C00003C0808186FD0DC00FB607FCF7CF8C916A
:1007D00085FFF2CF808185FFEDCFCE010E946503BA
:1007E000E9CFDF91CF91089580E090E0892B29F047
:1007F0000E945B0381110E94000080E090E0892B41
:1008000029F00E94510381110E94000080E090E0D5
:10081000892B49F080E090E0892B29F00E940000AC
:1008200081110E94000080E090E0892B49F080E077
:1008300090E0892B29F00E94000081110C940000A7
:1008400008958F929F92BF92CF92DF92EF92FF9284
:100850000F931F93CF93DF932091D2113091D31137
:10086000A9014255504F6A01F901EA53F44F7F0143
:1008700089010252184F4B01A9014654524FE90118
:10088000CE52D64FD901A651BA4FBC01685F7F4FF7
:10089000FC01B190CF01F601B1926F01F701B19265
:1008A0007F01F801B1928F01F401B1904F01FA017B
:1008B000B192AF01B992BD928617970749F7285FA9
:1008C0003F4F3093D3112093D211DF91CF911F91DD
:1008D0000F91FF90EF90DF90CF90BF909F908F90FF
:1008E0000895CF92DF92EF92FF920F931F93CF93D1
:1008F000DF931F921F92CDB7DEB769834A83880FBB
:10090000991F00911F1410912014000F111FE9EC82
:10091000F3E19F01295C33412017310714F4119250
:10092000F8CF2981FC01E753FC4E21838A81808323
:1009300060E080911D140E9422021016110604F539
:1009400001501109F801E753FC4EE080D0901B14D0
:10095000C090191488E0F82E6E2D661F6627661F5A
:100960008C2D0E942202EE0C61E08D2D0E9422024D
:1009700060E08D2D0E942202FA94F110EDCFDDCFC0
:1009800061E080911D140F900F90DF91CF911F9126
:100990000F91FF90EF90DF90CF900C942202EF9296
:1009A000FF920F931F93CF937C018C0183E0000F84
:1009B000111F8A95E1F707521C4EC1E0F801119210
:1009C0008F0140E06C2FC7010E947104CF5FC930D6
:1009D000A9F7CF911F910F91FF90EF90089520916B
:1009E0001F1430912014821793078CF4683071051E
:1009F00071F0FC0123E0EE0FFF1F2A95E1F7E753AA
:100A0000FC4EE60FF71F408B6F5F0C947104089546
:100A10004F925F926F927F928F929F92AF92BF920E
:100A2000CF92DF92EF92FF920F931F93CF93DF93BA
:100A3000EEEAFFE046EC5BE02EED37E08AEB9DE06E
:100A4000C2EDD9E00AEE15E01192DA011D92AD0176
:100A5000D9011D929D01DC011D92CD011992D80191
:100A60001D928D01B1E1E23AFB0771F78AECA82EE5
:100A700081E1B82E92ECC92E91E1D92E2AEBE22E1B
:100A800021E1F22E02EB11E13AEA832E31E1932EBD
:100A900042EA642E41E1742E2301E401C80197016A
:100AA000A601F5011192DA011D92AD01D9011D9245
:100AB0009D01DC011D92CD011992D2011D922D01E3
:100AC000B1E1E23DFB0771F7D0E0C0E0F5014191F3
:100AD0005F01BE0190E080E00E94EF04D6014D91DD
:100AE0006D01BE0181E090E00E94EF04F7014191A9
:100AF0007F01BE0182E090E00E94EF04D8014D9199
:100B00008D01BE0183E090E00E94EF04F401419169
:100B10004F01BE0184E090E00E94EF04D3014D91AB
:100B20003D01BE0185E090E00E94EF042196C830AF
:100B3000D10561F61092D3111092D211DF91CF91AD
:100B40001F910F91FF90EF90DF90CF90BF90AF90EB
:100B50009F908F907F906F905F904F90089542E0AC
:100B600050E060EE75E089E892E10C94A7020F93E3
:100B70001F93CF93DF93EC0188819981009759F0FF
:100B80002A813B812617370730F081E0DF91CF9132
:100B90001F910F9108958B016F5F7F4F0E94530E3D
:100BA000009759F0998388831B830A832C813D81A8
:100BB000232B59F7FC011082E8CF80E0E7CF0F9399
:100BC0001F93CF93DF93EC018B010E94B70528811F
:100BD0003981811112C02115310519F0C9010E9416
:100BE000CA0D198218821D821C821B821A82CE01B4
:100BF000DF91CF911F910F9108951D830C8362EEB9
:100C000075E0C9010E943D0FF2CF1F920F920FB6FF
:100C10000F9211242F933F938F939F93AF93BF9382
:100C20008091851290918612A0918712B0918812BE
:100C30003091801223E0230F2D3758F50196A11D26
:100C4000B11D209380128093851290938612A093F9
:100C50008712B09388128091811290918212A09194
:100C60008312B09184120196A11DB11D809381124F
:100C700090938212A0938312B0938412BF91AF918C
:100C80009F918F913F912F910F900FBE0F901F90CA
:100C9000189526E8230F0296A11DB11DD2CF1F92F1
:100CA0000F920FB60F9211240BB60F922F933F9312
:100CB0004F935F936F937F938F939F93AF93BF9364
:100CC000EF93FF9389E892E10E946503FF91EF9112
:100CD000BF91AF919F918F917F916F915F914F9154
:100CE0003F912F910F900BBE0F900FBE0F901F9052
:100CF00018951F920F920FB60F9211240BB60F92F8
:100D00002F938F939F93EF93FF93E0919912F0911C
:100D10009A128081E0919F12F091A01282FD1DC075
:100D200090818091A2128F5F8F732091A3128217FE
:100D300041F0E091A212F0E0E757FD4E958F8093CD
:100D4000A212FF91EF919F918F912F910F900BBE67
:100D50000F900FBE0F901F9018958081F2CF1F92B9
:100D60000F920FB60F9211240BB60F922F933F9351
:100D70004F935F936F937F938F939F93AF93BF93A3
:100D8000EF93FF9386E293E10E946503FF91EF9159
:100D9000BF91AF919F918F917F916F915F914F9193
:100DA0003F912F910F900BBE0F900FBE0F901F9091
:100DB00018951F920F920FB60F9211240BB60F9237
:100DC0002F938F939F93EF93FF93E0913613F091BE
:100DD00037138081E0913C13F0913D1382FD1DC0DB
:100DE000908180913F138F5F8F7320914013821702
:100DF00041F0E0913F13F0E0EA5DFC4E958F809367
:100E00003F13FF91EF919F918F912F910F900BBE08
:100E10000F900FBE0F901F9018958081F2CFCF9347
:100E2000DF9310928C1210928B1248EE53E060E028
:100E300070E040938D1250938E1260938F127093D6
:100E4000901282ED95E090938A12809389122DEC96
:100E500030E030939612209395122CEC30E03093D2
:100E600098122093971228EC30E030939A12209336
:100E7000991229EC30E030939C1220939B122AECBB
:100E800030E030939E1220939D122EEC30E0309390
:100E9000A01220939F121092A2121092A3121092ED
:100EA000A4121092A51210922913109228134093A5
:100EB0002A1350932B1360932C1370932D1390933C
:100EC00027138093261385EC90E09093331380933F
:100ED000321384EC90E0909335138093341380ECBC
:100EE00090E0909337138093361381EC90E09093C9
:100EF00039138093381382EC90E090933B138093E6
:100F00003A1386EC90E090933D1380933C1310923B
:100F10003F13109240131092411310924213CBE0F2
:100F2000D0E0D0931A14C09319148DE090E0909300
:100F30001C1480931B148AE090E090931E148093FD
:100F40001D1486E090E09093201480931F1461E0BC
:100F50008BE00E94500261E080911B140E945002BD
:100F600061E080911D140E94500261E080911D1487
:100F70000E942202D0931A14C0931914E9EDF3E1F0
:100F8000119284E1E931F807D9F7D0E0C0E080910F
:100F90001F1490912014C817D90774F540E06FE032
:100FA000CE010E94710480911F1490912014C817E3
:100FB000D9072CF447E06BE0CE010E94710440E0B9
:100FC00069E0CE010E94710480911F149091201459
:100FD000C817D9071CF4CE010E94CF0480911F14BA
:100FE00090912014C817D9072CF440E06CE0CE0192
:100FF0000E9471042196CBCF1092C4131092C31398
:101000001092C6131092C5131092C8131092C713F2
:1010100070E060E083EC93E1DF91CF910C94DF0509
:10102000CF93DF93CDB7DEB768970FB6F894DEBFE6
:101030000FBECDBF789484B5826084BD84B58160D5
:1010400084BD85B5826085BD85B5816085BD809193
:101050006E00816080936E0010928100809181000B
:101060008260809381008091810081608093810003
:10107000809180008160809380008091B1008460C5
:101080008093B1008091B00081608093B000809126
:1010900091008260809391008091910081608093A3
:1010A0009100809190008160809390008091A100D8
:1010B00082608093A1008091A10081608093A10053
:1010C0008091A00081608093A000809121018260C6
:1010D0008093210180912101816080932101809181
:1010E000200181608093200180917A008460809348
:1010F0007A0080917A00826080937A0080917A00F1
:10110000816080937A0080917A00806880937A0071
:101110001092C10086E293E10E946B0189E892E19E
:101120000E946B0160E083E00E94500260E082E078
:101130000E94500261E088E00E94500260E088E076
:101140000E94220210E000E080911F149091201470
:10115000081719072CF441E06CE0C8010E947104E3
:1011600080911F1490912014081719072CF444E063
:101170006AE0C8010E94710480911F1490912014AC
:10118000081719071CF4C8010E94CF040F5F1F4FF6
:1011900006301105C9F683E00E94F90190937F1291
:1011A00080937E128091C7139091C813892B39F0D8
:1011B000E091C313F091C41380818111F3C086E2E2
:1011C00093E10E944503892B09F455C01A821982C4
:1011D0001C821B821E821D8270E060E0CE0101969F
:1011E0000E94DF050E94F70297FD1EC08A3091051C
:1011F000D9F08F8318860D811E810F5F1F4FB801B4
:10120000CE0101960E94B705882361F329813A81B6
:101210008D819E81BE01695F7F4F820F931F0E9467
:101220003D0F1E830D83DECF8091C3139091C413B5
:10123000009709F4A0C069817A816115710509F4EC
:1012400098C04091C5135091C6132D813E8142171D
:10125000530708F48EC00E943D0F8D819E819093AC
:10126000C8138093C7131E821D8289819A810097BB
:1012700011F00E94CA0D80917E1290917F12019709
:1012800009F074C04091C7135091C813411551051E
:1012900009F46CC06091C3137091C413FB01808189
:1012A000882309F463C02DB73EB7388F2F8B89E8A8
:1012B00092E10E94A7020E94AF050091C71310910E
:1012C000C81310937D1200937C12C80101964DB78C
:1012D0005EB7481B590B0FB6F8945EBF0FBE4DBFEB
:1012E000EDB7FEB731967F01892B09F46CC001156B
:1012F000110509F05CC01082F12CE12C2091D21173
:101300003091D3113C872B87C9014F968E159F05CD
:1013100024F182E00E94F901019709F060C246E0E1
:1013200050E063EE75E089E892E10E94A7020E9416
:10133000AF0560E088E00E94220270E060E083EC8C
:1013400093E10E94DF051092D3111092D2111092F6
:101350007D1210927C120E9408050E9408052F89B8
:10136000388D0FB6F8943EBF0FBE2DBF0E94F40318
:1013700012CF0E94CA0D89819A819093C4138093E1
:10138000C3138B819C819093C6138093C5138D8169
:101390009E819093C8138093C7131A8219821C826E
:1013A0001B8261CF61E088E00E94220264CF6091DD
:1013B000C3137091C413A801CF010E94440FF70119
:1013C000E00FF11F10826701C6018E199F09801777
:1013D00091070CF091CFF60181916F016CE672E1FB
:1013E000803209F4F9C1813239F468EB75E080ECA0
:1013F00095E00E942104E8CF823229F464E672E18C
:1014000080EB95E0F6CF833229F460EA75E088EA54
:1014100095E0EFCF843229F460E975E088E995E042
:10142000E8CF853229F460E875E088E895E0E1CFFF
:10143000863229F460E775E088E795E0DACF8732F5
:1014400029F46CE572E188E695E0D3CF883229F47F
:1014500068E575E080E695E0CCCF893229F468E450
:1014600075E080E595E0C5CF8A3229F464E572E144
:1014700080E495E0BECF8B3229F460E375E088E329
:1014800095E0B7CF8C3229F468E275E08CE492E104
:10149000B0CF8D3229F468E175E080E295E0A9CF04
:1014A0008E3229F460E175E084E492E1A2CF8F32BC
:1014B00029F460E075E088E095E09BCF803329F463
:1014C00060EF74E088EF94E094CF813329F460EE0C
:1014D00074E088EE94E08DCF823329F460ED74E0FF
:1014E00088ED94E086CF833329F460EC74E088ECD7
:1014F00094E07FCF813429F460EB74E088EB94E0D2
:1015000078CF863429F460EA74E088EA94E071CFF9
:10151000873429F460E974E088E994E06ACF88347C
:1015200029F460E874E088E894E063CF893429F412
:1015300060E774E088E794E05CCF8A3429F460E6E1
:1015400074E088E694E055CF8B3429F460E574E0CC
:1015500088E594E04ECF8C3429F460E474E088E4AC
:1015600094E047CF8D3429F460E374E088E394E09D
:1015700040CF8E3429F460E274E088E294E039CF01
:101580008F3429F460E174E088E194E032CF803553
:1015900029F460E074E088E094E02BCF813529F4F1
:1015A00060EF73E088EF93E024CF823529F460EE9A
:1015B00073E088EE93E01DCF833529F460ED73E08E
:1015C00088ED93E016CF843529F460EC73E088EC65
:1015D00093E00FCF853529F460EB73E088EB93E05F
:1015E00008CF863529F460EA73E088EA93E001CFFA
:1015F000873529F460E973E088E993E0FACE88350D
:1016000029F460E873E088E893E0F3CE893529F4A3
:1016100060E773E088E793E0ECCE8A3529F460E672
:1016200073E088E693E0E5CE8B3529F460E573E05E
:1016300088E593E0DECE8C3529F460E473E088E43D
:1016400093E0D7CE8D3529F460E373E088E393E02F
:10165000D0CE8E3529F46CE372E188E293E0C9CEF6
:101660008F3529F460E273E084E392E1C2CE8036E4
:1016700029F46CE272E188E193E0BBCE813629F473
:1016800060E173E084E292E1B4CE823629F468E04E
:1016900073E08CE192E1ADCE833629F460E073E033
:1016A00084E192E1A6CE843629F468EF72E08CE002
:1016B00092E19FCE853629F460EF72E084E092E1FA
:1016C00098CE863629F468EE72E08CEF91E191CEE7
:1016D000873629F460EE72E084EF91E18ACE883695
:1016E00029F468ED72E08CEE91E183CE893629F41D
:1016F00060ED72E084EE91E17CCE8A3629F468ECEC
:1017000072E08CED91E175CE8B3629F460EC72E0DD
:1017100084ED91E16ECE8C3629F460EB72E088EBBB
:1017200092E067CE68EA72E08D3609F455C060EA4F
:1017300072E08E3609F450C068E972E08F3609F421
:101740004BC060E972E0803709F446C068E872E097
:10175000813709F441C060E872E08237E9F168E757
:1017600072E08337C9F1843729F468E672E080E7D4
:1017700092E03FCE60E672E0853771F168E572E095
:10178000863751F160E572E0873731F168E472E045
:10179000883711F160E472E08937F1F068E372E0B4
:1017A0008A37D1F08B3729F468E272E080E392E067
:1017B00020CE8C3729F468E172E080E292E019CE05
:1017C0008D3729F468E072E080E192E012CE8E3726
:1017D00009F0FACD60E072E084E792E10ACE9AEC7B
:1017E000892E91E1992E22ECC22E21E1D22E3AEBE4
:1017F000432E31E1532E42EBA42E41E1B42E5AEA9E
:10180000652E51E1752E62EA262E61E1362E3C8A64
:101810002B8A7E8A6D8ABA8AA98A588A4F86DE8682
:10182000CD869A86898610E000E0E985FA854191A7
:10183000FA87E987B80190E080E00E94EF04ED8527
:10184000FE854191FE87ED87B80181E090E00E941E
:10185000EF04EF85F8894191F88BEF87B80182E0BA
:1018600090E00E94EF04E989FA894191FA8BE98BB3
:10187000B80183E090E00E94EF04ED89FE89419178
:10188000FE8BED8BB80184E090E00E94EF04EB89C1
:10189000FC894191FC8BEB8BB80185E090E00E94C4
:1018A000EF040F5F1F4F0830110509F0BECF90E025
:1018B00080E08730910509F470C0F4012181208314
:1018C000F5012181208301965FEF851A950AEFEFDC
:1018D000AE1ABE0A8830910561F7F8E0EF16F10400
:1018E000A4F12091D2113091D31190E080E08730A3
:1018F000910509F46EC0F60141814083F3014181F5
:1019000040830196FFEFCF1ADF0A4FEF641A740A83
:101910008830910561F750E1E516F104B4F090E0EC
:1019200080E08730910509F46EC0F2014181408367
:10193000F101418140830196FFEF4F1A5F0A4FEF9B
:10194000241A340A8830910561F70E9481022B0124
:101950003C0188EC882E912CA12CB12C0E94810294
:101960006419750986099709683E734081059105D8
:10197000A8F351E0851A9108A108B10888EE480E35
:1019800083E0581E611C711C81149104A104B104F0
:1019900029F7FFEFEF1AFF0AB1CC2091AE0F209389
:1019A000D1112091BA0D2093B911AAEBBDE0EEEA56
:1019B000FFE09F012E5A3F404B855C852417350779
:1019C0000CF081CF2181219311962C9111972D93A9
:1019D000F0CF4091C60B4093C9114091D20940937A
:1019E000B111A2EDB9E0E6ECFBE0AF01465C5B4073
:1019F000421753070CF085CF4181419311964C91CA
:101A000011974D93F2CF4091DE074093C111409161
:101A1000EA054093A911AAEEB5E0EEEDF7E0AF01BB
:101A20004E5D5740421753070CF085CF41814193DB
:101A300011964C9111974D93F2CF8091C3139091D1
:101A4000C413009711F00C94CA0D0895EE0FFF1FF8
:101A5000881F8BBF0790F691E02D19940F931F9369
:101A6000CF93DF938230910510F482E090E0E09113
:101A70002314F091241430E020E0B0E0A0E030978F
:101A800099F42115310509F44AC0281B390B24307B
:101A90003105D8F58A819B816115710589F1FB01BA
:101AA00093838283FE0111C04081518102811381A1
:101AB00048175907E0F04817590799F4109761F053
:101AC00012960C93129713961C933296CF01DF91C6
:101AD000CF911F910F910895009323141093241414
:101AE000F4CF2115310551F04217530738F0A90101
:101AF000DB019A01BD01DF01F801C1CFEF01F9CF90
:101B00009093241480932314CDCFFE01E20FF31F92
:101B1000819391932250310939832883D7CF209123
:101B2000211430912214232B41F42091CA053091C5
:101B3000CB0530932214209321142091C8053091B5
:101B4000C9052115310541F42DB73EB74091CC05AB
:101B50005091CD05241B350BE0912114F0912214F6
:101B6000E217F307A0F42E1B3F0B2817390778F074
:101B7000AC014E5F5F4F2417350748F04E0F5F1FD3
:101B80005093221440932114819391939FCFF0E0BE
:101B9000E0E09CCFCF93DF930097E9F0FC01329710
:101BA00013821282A0912314B0912414ED0130E02D
:101BB00020E01097A1F420813181820F931F2091A2
:101BC0002114309122142817390709F061C0F093CD
:101BD0002214E0932114DF91CF910895EA01CE17EA
:101BE000DF07E8F54A815B819E0141155105B1F798
:101BF000E901FB83EA8349915991C40FD51FEC1782
:101C0000FD0761F4808191810296840F951FE9019F
:101C100099838883828193819B838A83F0E0E0E0CB
:101C200012968D919C9113970097B9F52D913C9147
:101C30001197CD010296820F931F209121143091AC
:101C400022142817390739F6309751F510922414C9
:101C500010922314B0932214A0932114BCCFD383E9
:101C6000C28340815181840F951FC817D90761F441
:101C70004E5F5F4F88819981480F591F5183408380
:101C80008A819B81938382832115310509F0B0CF2E
:101C9000F0932414E09323149ECFFD01DC01C0CF08
:101CA00013821282D7CF4F925F926F927F928F9260
:101CB0009F92AF92BF92CF92DF92EF92FF920F93DB
:101CC0001F93CF93DF938C01009799F4CB01DF91A1
:101CD000CF911F910F91FF90EF90DF90CF90BF9029
:101CE000AF909F908F907F906F905F904F900C94EB
:101CF0002E0DFC01E60FF71F9C0122503109E2175F
:101D0000F30708F4AEC0D901CD91DC911197C61745
:101D1000D70720F1C530D10578F0CE01049786179A
:101D2000970750F0C61BD70B2297C193D1936D93A1
:101D30007C93CF010E94CA0DC801DF91CF911F9102
:101D40000F91FF90EF90DF90CF90BF90AF909F905A
:101D50008F907F906F905F904F9008955B01AC1AC9
:101D6000BD0A4C018C0E9D1EA0912314B091241429
:101D7000512C412CF12CE12C109731F5809121143C
:101D8000909122148815990509F05CC046165706F3
:101D900008F058C08091C8059091C905009741F49A
:101DA0008DB79EB74091CC055091CD05841B950B06
:101DB000E817F90708F055C0F0932214E0932114B6
:101DC000F90171836083B8CF8D919C911197129620
:101DD0006C90129713967C901397A815B90559F536
:101DE0006C0142E0C40ED11CCA14DB0420F1AC012A
:101DF0004A195B09DA011296159780F062827382A4
:101E000051834083D9016D937C93E114F10471F007
:101E1000D7011396FC93EE9312978ECF22968C0FD8
:101E20009D1FF90191838083F301EFCFF093241478
:101E3000E093231481CF4816590608F42C017D0144
:101E4000D3019ACFCB010E942E0D7C01009749F05F
:101E5000AE01B8010E94340FC8010E94CA0D87016B
:101E60006BCF10E000E068CFFB01DC0102C0019005
:101E70000D9241505040D8F70895FB01DC010190CC
:101E80000D920020E1F70895FB01DC014150504024
:101E900048F001900D920020C9F701C01D924150F9
:101EA0005040E0F7089511E0C7E3D1E000E006C03C
:101EB000802FFE010E94260D2196011DC833D107F7
:0A1EC00080E00807A9F7F894FFCFAF
:101ECA0000040202040402000040C0C0FE7F0100B8
:101EDA00000203037FFE8000000000FFFF000000F5
:101EEA00000000FFFF00000000017FFEC0C04000AC
:101EFA000080FE7F0303020000C1A191898583004F
:101F0A00008047281008070000C366181866C30037
:101F1A00007F80807F80807F003F408080403F003C
:101F2A00007F80808040FF00000000FFFF0000006B
:101F3A0000C0C0FEFEC0C00000264949494932001F
:101F4A0000FF04020204000000000C1212FF00004D
:101F5A000000FF12120C0000007E818181817E0048
:101F6A000000FF020101FE0000FF0202FC0202FC67
:101F7A00000000FFFF000000000000FEFE0000005D
:101F8A0000FEFE2070D888000060E080FA7A000027
:101F9A00000000F6F600000000FEFE1010F0E0005F
:101FAA000018BCA4A4FC7C000020FCFE222604002D
:101FBA000070F8A8A8B830000060F09090FEFE000B
:101FCA000070F88888D8500000FEFE9090F06000FB
:101FDA000040E8A8A8F8F000000103060400000089
:101FEA0000C0C0C0C0C0C000001C0E03030E1C000D
:101FFA000000C0C0FFFF000000000303FFFF000055
:10200A000000010F7E700000073FF8C000000000CA
:10201A000000FFFFC0C000000000FFFF0303000034
:10202A0000F8FEE7E1E0E00000070787E77F1F000E
:10203A00000000FFFF00000000FFFF8080FFFF009C
:10204A0000FEFF0101FFFE00007FFF8080FF7F008E
:10205A0000FFC07878C0FF0000FF00000000FF000A
:10206A00003F3FC0C03F3F0000FFFF0000FFFF00EE
:10207A0000FFFFC0C0FFFF0000FFFF0000FFFF00DE
:10208A00000000FFFF000000000303FFFF0303003E
:10209A000080808080FFFF0000FFFF818181810036
:1020AA0000FFFF010204F80000FFFF8181423C00AB
:1020BA00007F40404040FF0000FF01010101FF0096
:1020CA0000FFFF000000000000FFFF8181423C008A
:1020DA0000FFFF8080FFFF0000FFFF0101FFFF00FC
:1020EA0000FF010000FFFF0000FF010102FCFF00EA
:1020FA0000FF00000000FF0000FF031E1E03FF0098
:10210A0000FFFFC0C0C0C00000FFFF0000000000C9
:10211A0000FFFF010204F80000FFFF8040201F00BB
:10212A0000F8C0FFFF000000000303FFFF030300E5
:10213A0000C0C0FFFFC0C000000303FFFF0303008D
:10214A0000FFFF0101FFFF0000FFFF8080FFFF008B
:10215A0000FFFFC0C6FEFE0000FFFF0303030300EB
:10216A0000FFFF010101010000FFFF838383830059
:10217A0000FFFF0303FFFF0000F8FF8787FFF80057
:10218A00007EF0E0F13F3E00007E0F078FFC7C00EE
:10219A0000FCFEE7E3E1E000003C1F0787FEFC00CD
:1021AA0000E0E0FFFFE0E00000080CFFFF00000095
:1021BA00003F7FE0E07F3F0000FCFE0707FEFC00D7
:1021CA000000707F0F00000000000000F0FE0E000B
:1021DA000000006060000000000001010101000031
:1021EA000000808080800000000000583800000055
:1021FA000001010707010100008080E0E080800003
:10220A00000028183E1828000000C0E0783F0700A8
:10221A00000003071EFCE00000073F78E0C0000052
:10222A0000E0FC1E070300000000001E1E00000064
:10223A00007E474344286E0000F838189870000062
:10224A00007C7E077370000000000ECEE07E3E0028
:10225A00183860FFFF633E1C387CC6FFFF061C1857
:10226A000CFFFF0CFFFF0C0C60E0FF7FE0FF7F60BC
:10227A00001E1E001E1E0000000067676767000040
:10228A000000FEFEFEFE0000000025148000000093
:10229A0000008703A702D402D4034503E3023703ED
:0A22AA000D0A0046494E4953480052
:00000001FF
