:100000000C945D000C9485000C9485000C94850084
:100010000C9485000C9485000C9485000C9485004C
:100020000C9485000C9485000C9485000C9485003C
:100030000C9485000C9485000C9485000C9485002C
:100040000C940A030C9485000C947A030C945403CA
:100050000C9485000C9485000C9485000C9485000C
:100060000C9485000C94850000000008000201003B
:100070000003040700000000000000000000000072
:10008000250028002B0000000000240027002A0083
:10009000040404040404040402020202020203032E
:1000A0000303030301020408102040800102040836
:1000B0001020010204081020AC0311241FBECFEF52
:1000C000D8E0DEBFCDBF25E0A8E6B2E001C01D92BA
:1000D000A230B207E1F712E0A0E0B1E0EAEBF3E111
:1000E00002C005900D92A836B107D9F710E0CDE512
:1000F000D0E004C02197FE010E94D407CC35D1077F
:10010000C9F70E945D040C94DB090C94000090E098
:10011000FC01EC55FF4F249180579F4FFC018491C7
:10012000882399F090E0880F991FFC01EA57FF4F50
:10013000A591B491FC01E458FF4F859194918FB73C
:10014000F894EC91E22BEC938FBF089590E0FC01C2
:10015000E859FF4F2491FC01EC55FF4F3491FC010D
:10016000E057FF4FE491EE23C9F0222339F023300A
:1001700001F1A8F4213019F1223029F1F0E0EE0F5D
:10018000FF1FE458FF4FA591B4918FB7F894EC91FD
:10019000611126C030953E233C938FBF08952730D0
:1001A000A9F02830C9F0243049F7809180008F7D74
:1001B00003C0809180008F7780938000DFCF84B56B
:1001C0008F7784BDDBCF84B58F7DFBCF8091B0006E
:1001D0008F778093B000D2CF8091B0008F7DF9CF20
:1001E0003E2BDACF3FB7F894809105049091060436
:1001F000A0910704B091080426B5A89B05C02F3F25
:1002000019F00196A11DB11D3FBFBA2FA92F982F3C
:100210008827BC01CD01620F711D811D911D42E037
:10022000660F771F881F991F4A95D1F70895AF92DF
:10023000BF92CF92DF92EF92FF920F931F93CF93D3
:10024000DF936C017B018B01040F151FEB015E0135
:10025000AE18BF08C017D10759F06991D601ED91CA
:10026000FC910190F081E02DC6010995892B79F769
:10027000C501DF91CF911F910F91FF90EF90DF901B
:10028000CF90BF90AF900895FC01538D448D252FE2
:1002900030E0842F90E0821B930B541710F0CF9620
:1002A000089501970895FC01918D828D981761F052
:1002B000A28DAE0FBF2FB11D5D968C91928D9F5F69
:1002C0009F73928F90E008958FEF9FEF0895FC0148
:1002D000918D828D981731F0828DE80FF11D858DFB
:1002E00090E008958FEF9FEF0895FC01918D228D8E
:1002F000892F90E0805C9F4F821B91098F73992713
:10030000089589E094E00E94750121E0892B09F4A9
:1003100020E0822F089580E090E0892B29F00E9450
:10032000810181110C9400000895FC01A48DA80F97
:10033000B92FB11DA35ABF4F2C91848D90E0019627
:100340008F739927848FA689B7892C93A089B18947
:100350008C91837080648C93938D848D981306C0E8
:100360000288F389E02D80818F7D80830895EF924C
:10037000FF920F931F93CF93DF93EC0181E0888F5F
:100380009B8D8C8D98131AC0E889F989808185FF2F
:1003900015C09FB7F894EE89FF896083E889F989D1
:1003A00080818370806480839FBF81E090E0DF91D3
:1003B000CF911F910F91FF90EF900895F62E0B8D26
:1003C00010E00F5F1F4F0F731127E02E8C8D8E11E1
:1003D0000CC00FB607FCFACFE889F989808185FF48
:1003E000F5CFCE010E949501F1CFEB8DEC0FFD2FE3
:1003F000F11DE35AFF4FF0829FB7F8940B8FEA8903
:10040000FB8980818062CFCFCF93DF93EC01888D11
:100410008823B9F0AA89BB89E889F9898C9185FD7F
:1004200003C0808186FD0DC00FB607FCF7CF8C910D
:1004300085FFF2CF808185FFEDCFCE010E9495012F
:10044000E9CFDF91CF9108958F929F92BF92CF9283
:10045000DF92EF92FF920F931F93CF93DF93209140
:10046000A0023091A102A90144535C4F6A01F90135
:10047000E656FC4F7F01890108591C4F4B01A90129
:100480004A5C5C4FE901CC5FDC4FD901AE52BD4FF5
:10049000BC01685F7F4FFC01B190CF01F601B192C2
:1004A0006F01F701B1927F01F801B1928F01F40160
:1004B000B1904F01FA01B192AF01B992BD92861786
:1004C000970749F7285F3F4F3093A1022093A0027E
:1004D000DF91CF911F910F91FF90EF90DF90CF9020
:1004E000BF909F908F900895CF92DF92EF92FF92EE
:1004F0000F931F93CF93DF9300D0CDB7DEB76983FF
:100500004A83880F991F0091FC041091FD04000F8D
:10051000111FE6EAF4E09F01265A34402017310704
:1005200014F41192F8CF2981FC01EA55FB4F218385
:100530008A81808360E08091FA040E94A6001016F0
:10054000110604F501501109F801EA55FB4FE0804E
:10055000D090F804C090F60488E0F82E6E2D661F47
:100560006627661F8C2D0E94A600EE0C61E08D2D83
:100570000E94A60060E08D2D0E94A600FA94F11062
:10058000EDCFDDCF61E08091FA040F900F90DF9105
:10059000CF911F910F91FF90EF90DF90CF900C942F
:1005A000A600EF92FF920F931F93CF937C018C01D3
:1005B00083E0000F111F8A95E1F70A541B4FC1E039
:1005C000F80111928F0140E06C2FC7010E94740264
:1005D000CF5FC930A9F7CF911F910F91FF90EF9096
:1005E00008952091FC043091FD04821793078CF448
:1005F0006830710571F0FC0123E0EE0FFF1F2A95B2
:10060000E1F7EA55FB4FE60FF71F408B6F5F0C9445
:10061000740208951F920F920FB60F9211242F9318
:100620003F938F939F93AF93BF93809101049091D9
:100630000204A0910304B09104043091000423E06B
:10064000230F2D3758F50196A11DB11D20930004ED
:100650008093010490930204A0930304B0930404D4
:100660008091050490910604A0910704B0910804BC
:100670000196A11DB11D8093050490930604A093DB
:100680000704B0930804BF91AF919F918F913F9160
:100690002F910F900FBE0F901F90189526E8230FF3
:1006A0000296A11DB11DD2CF1F920F920FB60F92CD
:1006B00011242F933F934F935F936F937F938F9367
:1006C0009F93AF93BF93EF93FF9389E094E00E94D1
:1006D0009501FF91EF91BF91AF919F918F917F9184
:1006E0006F915F914F913F912F910F900FBE0F909F
:1006F0001F9018951F920F920FB60F9211242F93EF
:100700008F939F93EF93FF93E0911904F0911A0454
:100710008081E0911F04F091200482FD1BC0908134
:10072000809122048F5F8F7320912304821741F000
:10073000E0912204F0E0E75FFB4F958F8093220465
:10074000FF91EF919F918F912F910F900FBE0F907E
:100750001F9018958081F4CFCF93DF9310920C04F3
:1007600010920B0488EE93E0A0E0B0E080930D04BB
:1007700090930E04A0930F04B093100482E592E0CE
:1007800090930A048093090485EC90E090931604FA
:100790008093150484EC90E09093180480931704E0
:1007A00080EC90E090931A048093190481EC90E01F
:1007B00090931C0480931B0482EC90E090931E04A1
:1007C00080931D0486EC90E09093200480931F0496
:1007D00010922204109223041092240410922504F3
:1007E000CBE0D0E0D093F704C093F6048DE090E026
:1007F0009093F9048093F8048AE090E09093FB04CE
:100800008093FA0486E090E09093FD048093FC04CA
:100810008BE00E9487008091F8040E9487008091FD
:10082000FA040E94870061E08091FA040E94A60009
:10083000D093F704C093F604E6EBF4E0119284E061
:10084000E63FF807D9F7D0E0C0E08091FC04909132
:10085000FD04C817D90774F540E06FE0CE010E948F
:1008600074028091FC049091FD04C817D9072CF400
:1008700047E06BE0CE010E94740240E069E0CE01E7
:100880000E9474028091FC049091FD04C817D9075E
:100890001CF4CE010E94D1028091FC049091FD04D1
:1008A000C817D9072CF440E06CE0CE010E94740216
:1008B0002196CBCFDF91CF910895CF93DF93CDB722
:1008C000DEB762970FB6F894DEBF0FBECDBF789447
:1008D00084B5826084BD84B5816084BD85B5826045
:1008E00085BD85B5816085BD80916E0081608093F6
:1008F0006E0010928100809181008260809381005F
:10090000809181008160809381008091800081606E
:10091000809380008091B10084608093B1008091C9
:10092000B00081608093B00080917A0084608093F1
:100930007A0080917A00826080937A0080917A00B8
:10094000816080937A0080917A00806880937A0039
:100950001092C100E0911904F0911A0482E08083A2
:10096000E0911504F09116041082E0911704F091C3
:1009700018048FEC808310922104E0911D04F09103
:100980001E0486E08083E0911B04F0911C048081AA
:1009900080618083E0911B04F0911C048081886059
:1009A0008083E0911B04F0911C0480818068808327
:1009B000E0911B04F0911C0480818F7D808310E006
:1009C00000E08091FC049091FD04081719072CF4B5
:1009D00041E06CE0C8010E9474028091FC04909197
:1009E000FD04081719072CF444E06AE0C8010E94CE
:1009F00074028091FC049091FD04081719071CF4FF
:100A0000C8010E94D1020F5F1F4F06301105C9F6C1
:100A10002DB73EB73A8B298B68E070E090E080E01C
:100A20000E94FF087C0110E000E0009741F0DC012B
:100A30001C9260E672E00E94C50907E010E0109386
:100A4000FF030093FE03C8010196EDB7FEB7E81B54
:100A5000F90B0FB6F894FEBF0FBEEDBF2DB73EB732
:100A60002F5F3F4F690101151105A9F4118256014D
:100A7000C5018C199D09801791070CF0B8C0D501EC
:100A80008D915D01803289F460E972E088E992E03D
:100A90000E942402EDCFA801B701C9010E94CC0930
:100AA000F601E00FF11F1082E2CF813229F468E3F2
:100AB00072E080E492E0ECCF823229F468E872E0E0
:100AC00080E392E0E5CF833229F460E272E088E2CD
:100AD00092E0DECF843229F460E172E088E192E0B6
:100AE000D7CF853229F460E072E088E092E0D0CF81
:100AF000863229F460EF71E088EF91E0C9CF873248
:100B000029F460E872E088EE91E0C2CF883229F4DF
:100B100068ED71E080EE91E0BBCF893229F468EC9A
:100B200071E080ED91E0B4CF8A3229F468E772E099
:100B300080EC91E0ADCF8B3229F460EB71E088EB73
:100B400091E0A6CF8C3229F468EA71E080E792E068
:100B50009FCF8D3229F468E971E080EA91E098CF67
:100B60008E3229F460E971E088E692E091CF8F320D
:100B700029F460E871E088E891E08ACF803329F4B5
:100B800060E771E088E791E083CF813329F460E684
:100B900071E088E691E07CCF823329F460E571E072
:100BA00088E591E075CF833329F460E471E088E44F
:100BB00091E06ECF813429F460E371E088E391E045
:100BC00067CF883429F460E271E088E291E060CF79
:100BD0008C3429F460E171E088E191E059CF8F34E1
:100BE00009F046CF60E071E088E091E051CFD12C70
:100BF000C12CE091A002F091A102FE83ED83CF0110
:100C00004F968C159D050CF438C19AEC892E92E014
:100C1000992E22EC622E22E0722E3AEB232E32E045
:100C2000332E42EBA42E42E0B42E5AEA452E52E077
:100C3000552E22EA32E03A832983388B2F875E864D
:100C40004D86BC86AB863A86298678866F829C82E2
:100C50008B8210E000E0AB81BC814D91BC83AB8303
:100C6000B80190E080E00E94F102EF81F8854191A7
:100C7000F887EF83B80181E090E00E94F102A98536
:100C8000BA854D91BA87A987B80182E090E00E94A9
:100C9000F102EB85FC854191FC87EB87B80183E08D
:100CA00090E00E94F102AD85BE854D91BE87AD8773
:100CB000B80184E090E00E94F102EF85F88941914B
:100CC000F88BEF87B80185E090E00E94F1020F5F9A
:100CD0001F4F0830110509F0BECF90E080E087304B
:100CE000910509F47AC0D40111962C9111972C9397
:100CF000F5012181208301965FEF851A950AAFEFF8
:100D0000AA1ABA0A8830910551F7B8E0CB16D10477
:100D1000E4F12091A0023091A10290E080E08730C0
:100D2000910509F476C0F30141814083D201119607
:100D30004C9111974C930196BFEF6B1A7B0AEFEF22
:100D40004E1A5E0A8830910551F7F0E1CF16D104B2
:100D5000E4F090E080E08730910509F474C0D1019F
:100D600011964C9111974C93E981FA81418140830E
:100D70000196FFEF2F1A3F0A49815A814F5F5F4F5B
:100D80005A8349838830910531F70E94F2002B0184
:100D90003C018AEF882E912CA12CB12C0E94F200EC
:100DA0006419750986099709683E734081059105A4
:100DB000A8F351E0851A9108A108B10888EE480E01
:100DC00083E0581E611C711C81149104A104B104BC
:100DD00029F7BFEFCB1ADB0A0CCF2091CC0320936D
:100DE000D102209136032093B902A6E3B3E0ECECE4
:100DF000F3E09F012C5C33404D815E812417350761
:100E00000CF079CF2181219311962C9111972D937C
:100E1000F0CF40919A034093C9024091040340935C
:100E2000B102A4E0B3E0EAE9F3E0AF014A5953406C
:100E3000421753070CF07FCF4181419311964C919B
:100E400011974D93F2CF409168034093C1024091B6
:100E5000D2024093A902A2EDB2E0E8E6F3E0AF01CE
:100E600048565340421753070CF082CF41814193BB
:100E700011964C9111974D93F2CFECECF3E06AE9A7
:100E800073E048E653E026E333E084E093E002EDCC
:100E900012E01192DB011D92BD01DA011D92AD013C
:100EA000D9011D929D01DC011D92CD01D8011D9239
:100EB0008D01AEEFB3E0AE17BF0759F7EAECF2E0F1
:100EC00062EC72E04AEB52E022EB32E08AEA92E016
:100ED00002EA12E01192DB011D92BD01DA011D92BE
:100EE000AD01D9011D929D01DC011D92CD01D801FA
:100EF0001D928D01A2EDB2E0AE17BF0759F7109217
:100F0000A1021092A002E114F10419F0C7010E949D
:100F10007608E989FA890FB6F894FEBF0FBEEDBFD7
:100F200020E030E0232B09F473CD0E948101882357
:100F300009F46ECD0E9400006BCD2F923F924F922C
:100F40005F926F927F928F929F92AF92BF92CF9259
:100F5000DF92EF92FF920F931F93CF93DF93CDB762
:100F6000DEB7CA1BDB0B0FB6F894DEBF0FBECDBFDA
:100F700009942A88398848885F846E847D848C84AB
:100F80009B84AA84B984C884DF80EE80FD800C81B4
:100F90001B81AA81B981CE0FD11D0FB6F894DEBF97
:100FA0000FBECDBFED010895EE0FFF1F0590F49128
:100FB000E02D09940F931F93CF93DF938230910517
:100FC00010F482E090E0E0910005F091010530E03E
:100FD00020E0B0E0A0E0309799F42115310509F444
:100FE0004AC0281B390B24303105D8F58A819B81F2
:100FF0006115710589F1FB0193838283FE0111C0A4
:10100000408151810281138148175907E0F0481748
:10101000590799F4109761F012960C931297139652
:101020001C933296CF01DF91CF911F910F910895BC
:101030000093000510930105F4CF2115310551F0FF
:101040004217530738F0A901DB019A01BD01DF0106
:10105000F801C1CFEF01F9CF90930105809300050E
:10106000CDCFFE01E20FF31F8193919322503109FE
:1010700039832883D7CF2091FE043091FF04232B9E
:1010800041F420914A0230914B023093FF042093A7
:10109000FE0420914802309149022115310541F4A6
:1010A0002DB73EB740914C0250914D02241B350B99
:1010B000E091FE04F091FF04E217F307A0F42E1B69
:1010C0003F0B2817390778F0AC014E5F5F4F2417AC
:1010D000350748F04E0F5F1F5093FF044093FE0406
:1010E000819391939FCFF0E0E0E09CCFCF93DF938B
:1010F0000097E9F0FC01329713821282A09100055B
:10110000B0910105ED0130E020E01097A1F42081BD
:101110003181820F931F2091FE043091FF04281724
:10112000390709F061C0F093FF04E093FE04DF91FA
:10113000CF910895EA01CE17DF07E8F54A815B8178
:101140009E0141155105B1F7E901FB83EA834991FD
:101150005991C40FD51FEC17FD0761F4808191816F
:101160000296840F951FE901998388838281938178
:101170009B838A83F0E0E0E012968D919C91139717
:101180000097B9F52D913C911197CD010296820FF0
:10119000931F2091FE043091FF042817390739F678
:1011A000309751F51092010510920005B093FF049D
:1011B000A093FE04BCCFD383C28340815181840FAE
:1011C000951FC817D90761F44E5F5F4F88819981D9
:1011D000480F591F518340838A819B819383828367
:1011E0002115310509F0B0CFF0930105E09300051A
:1011F0009ECFFD01DC01C0CF13821282D7CFB0E0B9
:10120000A0E0E5E0F9E00C949F078C01009751F411
:10121000CB010E94DA078C01C801CDB7DEB7E0E14F
:101220000C94BB07FC01E60FF71F9C01225031090B
:10123000E217F30708F49DC0D901CD91DC91119715
:10124000C617D70798F0C530D10530F3CE01049703
:101250008617970708F3C61BD70B2297C193D19324
:101260006D937C93CF010E947608D6CF5B01AC1AB8
:10127000BD0A4C018C0E9D1EA0910005B091010588
:10128000512C412CF12CE12C109731F58091FE046A
:101290009091FF048815990509F05CC04616570621
:1012A00008F058C08091480290914902009741F49B
:1012B0008DB79EB740914C0250914D02841B950B07
:1012C000E817F90708F055C0F093FF04E093FE0417
:1012D000F90171836083A0CF8D919C911197129633
:1012E0006C90129713967C901397A815B90559F531
:1012F0006C0142E0C40ED11CCA14DB0420F1AC0125
:101300004A195B09DA011296159780F0628273829E
:1013100051834083D9016D937C93E114F10471F002
:10132000D7011396FC93EE93129776CF22968C0FEB
:101330009D1FF90191838083F301EFCFF0930105A5
:10134000E093000569CF4816590608F42C017D0189
:10135000D3019ACFCB010E94DA077C01009749F0B4
:10136000AE01B8010E94BC09C8010E94760887013D
:1013700053CF10E000E050CFFB01DC0102C0019030
:101380000D9241505040D8F70895FB01DC010190C7
:101390000D920020E1F70895FB01DC01415050401F
:1013A00048F001900D920020C9F701C01D924150F4
:0A13B0005040E0F70895F894FFCFD5
:1013BA00003F7CE0E07C3F0000FC3E07073EFC006B
:1013CA0000FFFFFFE0E0E00000FFFFFF0000000079
:1013DA0000FFFF0101FFFF0000FFFF8080FFFF0009
:1013EA0000FFFF0303FFFF0000F8FF8787FFF800F5
:1013FA00007EF0E0F13F3E00007E0F078FFC7C008C
:10140A0000FCFEE7E3E1E000003C1F0787FEFC006A
:10141A0000E0E0FFFFE0E00000080CFFFF00000032
:10142A00003F7FE0E07F3F0000FCFE0707FEFC0074
:10143A000000707F0F00000000000000F0FE0E00A8
:10144A0000000060600000000000010101010000CE
:10145A0000008080808000000000005838000000F2
:10146A000001010707010100008080E0E0808000A0
:10147A00000028183E1828000000C0E0783F070046
:10148A00000003071EFCE00000073F78E0C00000F0
:10149A0000E0FC1E070300000000001E1E00000002
:1014AA00007E474344286E0000F838189870000000
:1014BA00007C7E077370000000000ECEE07E3E00C6
:1014CA00183860FFFF633E1C387CC6FFFF061C18F5
:1014DA000CFFFF0CFFFF0C0C60E0FF7FE0FF7F605A
:1014EA00001E1E001E1E00000000676767670000DE
:1014FA000000FEFEFEFE0000000002058000000063
:10150A000000B70117014401040275015301670184
:08151A00484F4C41313233000F
:00000001FF
