:100000000C945D000C9485000C9485000C94850084
:100010000C9485000C9485000C9485000C9485004C
:100020000C9485000C9485000C9485000C9485003C
:100030000C9485000C9485000C9485000C9485002C
:100040000C94AD010C9485000C9485000C948500F3
:100050000C9485000C9485000C9485000C9485000C
:100060000C9485000C94850000000008000201003B
:100070000003040700000000000000000000000072
:10008000250028002B0000000000240027002A0083
:10009000040404040404040402020202020203032E
:1000A0000303030301020408102040800102040836
:1000B00010200102040810206C0411241FBECFEF91
:1000C000D8E0DEBFCDBF11E0A0E0B1E0E6ECF9E0A2
:1000D00002C005900D92A034B107D9F722E0A0E448
:1000E000B1E001C01D92AF3FB207E1F710E0CDE5EE
:1000F000D0E004C02197FE010E94DB04CC35D1077B
:10010000C9F70E94F7010C94E1040C94000090E000
:10011000FC01EC55FF4F249180579F4FFC018491C7
:10012000882399F090E0880F991FFC01EA57FF4F50
:10013000A591B491FC01E458FF4F859194918FB73C
:10014000F894EC91E22BEC938FBF089590E0FC01C2
:10015000E859FF4F2491FC01EC55FF4F3491FC010D
:10016000E057FF4FE491EE23C9F0222339F023300A
:1001700001F1A8F4213019F1223029F1F0E0EE0F5D
:10018000FF1FE458FF4FA591B4918FB7F894EC91FD
:10019000611126C030953E233C938FBF08952730D0
:1001A000A9F02830C9F0243049F7809180008F7D74
:1001B00003C0809180008F7780938000DFCF84B56B
:1001C0008F7784BDDBCF84B58F7DFBCF8091B0006E
:1001D0008F778093B000D2CF8091B0008F7DF9CF20
:1001E0003E2BDACF3FB7F8948091A3029091A402FE
:1001F000A091A502B091A60226B5A89B05C02F3FED
:1002000019F00196A11DB11D3FBFBA2FA92F982F3C
:100210008827BC01CD01620F711D811D911D42E037
:10022000660F771F881F991F4A95D1F70895CF92BF
:10023000DF92EF92FF920F931F93CF93DF9300D043
:10024000CDB7DEB769834A83880F991F0091FD02FD
:100250001091FE02000F111FE7EAF2E09F01275AFA
:1002600032402017310714F41192F8CF2981FC0194
:10027000E955FD4F21838A81808360E08091FB02F4
:100280000E94A6001016110604F501501109F8018C
:10029000E955FD4FE080D090F902C090F70288E068
:1002A000F82E6E2D661F6627661F8C2D0E94A600F5
:1002B000EE0C61E08D2D0E94A60060E08D2D0E9465
:1002C000A600FA94F110EDCFDDCF61E08091FB0242
:1002D0000F900F90DF91CF911F910F91FF90EF90B2
:1002E000DF90CF900C94A600EF92FF920F931F9394
:1002F000CF937C018C0183E0000F111F8A95E1F7F9
:1003000009541D4FC1E0F80111928F0140E06C2F9C
:10031000C7010E941701CF5FC930A9F7CF911F9184
:100320000F91FF90EF9008952091FD023091FE0211
:10033000821793078CF46830710571F0FC0123E09B
:10034000EE0FFF1F2A95E1F7E955FD4FE60FF71F66
:10035000408B6F5F0C94170108951F920F920FB698
:100360000F9211242F933F938F939F93AF93BF933B
:1003700080919F029091A002A091A102B091A2024F
:1003800030919E0223E0230F2D3758F50196A11DD1
:10039000B11D20939E0280939F029093A002A09390
:1003A000A102B093A2028091A3029091A402A09115
:1003B000A502B091A6020196A11DB11D8093A302D2
:1003C0009093A402A093A502B093A602BF91AF910F
:1003D0009F918F913F912F910F900FBE0F901F9083
:1003E000189526E8230F0296A11DB11DD2CFCF93F9
:1003F000DF93CDB7DEB72C970FB6F894DEBF0FBEF4
:10040000CDBF789484B5826084BD84B5816084BD9D
:1004100085B5826085BD85B5816085BD80916E00A2
:10042000816080936E0010928100809181008260D3
:100430008093810080918100816080938100809110
:1004400080008160809380008091B10084608093FF
:10045000B1008091B00081608093B00080917A00FB
:10046000846080937A0080917A00826080937A0021
:1004700080917A00816080937A0080917A00806810
:1004800080937A001092C1001A8219828091FD0235
:100490009091FE0229813A81281739072CF441E016
:1004A0006CE0C9010E9417018091FD029091FE024B
:1004B000E981FA81E817F90734F444E06AE08981B8
:1004C0009A810E9417018091FD029091FE0229817C
:1004D0003A812817390724F489819A810E9474018E
:1004E00089819A8101969A838983069779F6A090EB
:1004F0009C02B0909D02250110E000E0D201A659B7
:10050000BD4FF201E85CFD4F6F01B2016A5F7D4FA4
:10051000A2014C525E4F92012E553E4FC2018059AE
:100520009E4F0115110509F01FC1F8E3EF2EF1E010
:10053000FF2EE0E36E2EE1E07E2EF70191907F0129
:100540009D92F60191926F01FB019192BF01F3011F
:1005500091903F01FA019192AF01F90191929F01AF
:10056000FC019192CF01F0E4EF16F1E0FF0629F7CC
:100570000F5F1F4F28E0420E511C0430110509F097
:10058000BDCF30E2A30EB11CB0929D02A0929C029E
:1005900010E000E098E6892E91E0992E20E6C22E28
:1005A00021E0D22E38E5632E31E0732E40E5A42EF3
:1005B00041E0B42E58E4E52E51E0F52E60E4462EDD
:1005C00061E0562E5A864986FE82ED82BA82A98261
:1005D0007C826B82D886CF8214011C861B86F10137
:1005E00041911F016B857C8590E080E00E94940121
:1005F000EF81F8854191F887EF836B857C8581E0F9
:1006000090E00E949401EB81FC814191FC83EB839B
:100610006B857C8582E090E00E949401E981FA81FB
:100620004191FA83E9836B857C8583E090E00E94A9
:100630009401ED81FE814191FE83ED836B857C8584
:1006400084E090E00E949401E985FA854191FA875F
:10065000E9876B857C8585E090E00E9494012B857D
:100660003C852F5F3F4F3C872B872830310509F0B1
:10067000B6CF90E080E08730910509F4E7C0F4013F
:1006800021812083F5012181208301963FEF831A88
:10069000930AEFEFAE1ABE0A8830910561F7083071
:1006A00011057CF190E080E08730910509F4E5C008
:1006B000F60121812083F7012181208301963FEFFC
:1006C000C31AD30AEFEFEE1AFE0A8830910561F7DC
:1006D0000F301105B4F090E080E08730910509F407
:1006E000E4C0F30121812083F2012181208301965E
:1006F0003FEF631A730AEFEF4E1A5E0A88309105D6
:1007000061F70E94F2004B015C0184EFC82EDD24EA
:10071000D394E12CF12C0E94F200681979098A091E
:100720009B09683E734081059105A8F3F1E0CF1A5B
:10073000D108E108F10828EE820E23E0921EA11CE8
:10074000B11CC114D104E104F10429F70F5F1F4F5C
:100750000032110509F01ECF80E090E0892B09F4EA
:10076000C6CE0E940000C3CE0130110521F5F8E28B
:10077000EF2EF1E0FF2EE0E26E2EE1E07E2EF7019B
:1007800091907F019D92F60191926F01FB019192F0
:10079000BF01F30191903F01FA019192AF01F9017C
:1007A00091929F01FC019192CF01F0E3EF16F1E0ED
:1007B000FF0629F7DDCE0230110521F5F8E1EF2E15
:1007C000F1E0FF2EE0E16E2EE1E07E2EF701919048
:1007D0007F019D92F60191926F01FB019192BF0101
:1007E000F30191903F01FA019192AF01F9019192C9
:1007F0009F01FC019192CF01F0E2EF16F1E0FF06BC
:1008000029F7B6CEE8E0EE2EE1E0FE2E36016B01D0
:1008100060E071E0F70191907F019D92F301919268
:100820003F01F60191926F01FB019190BF01FA0126
:100830009192AF01F90191929F01FC019192CF0138
:10084000F0E1EF16F1E0FF0629F792CE20916A025F
:1008500020936F012091D40120935701EAE6F2E042
:10086000A4EDB1E02181219311962C9111972D9344
:1008700022E0EC39F207B1F708CF2091380220933B
:1008800067012091A20120934F01E8E3F2E0A2EA80
:10089000B1E02181219311962C9111972D932AE695
:1008A00032E02E173F07A9F709CF209106022093C7
:1008B0005F012091700120934701E6E0F2E0A0E79C
:1008C000B1E02181219311962C9111972D9322E073
:1008D000E833F207B1F70BCFCF93DF93CBE0D0E053
:1008E000D093F802C093F7028DE090E09093FA0263
:1008F0008093F9028AE090E09093FC028093FB02DF
:1009000086E090E09093FE028093FD028BE00E94CF
:1009100087008091F9020E9487008091FB020E946B
:10092000870061E08091FB020E94A600D093F8024C
:10093000C093F702E7EBF2E0119282E0E73FF8079D
:10094000D9F7D0E0C0E08091FD029091FE02C81777
:10095000D90774F540E06FE0CE010E941701809145
:10096000FD029091FE02C817D9072CF447E06BE016
:10097000CE010E94170140E069E0CE010E941701FC
:100980008091FD029091FE02C817D9071CF4CE0198
:100990000E9474018091FD029091FE02C817D90750
:1009A0002CF440E06CE0CE010E9417012196CBCFE1
:1009B000DF91CF910895EE0FFF1F0590F491E02D88
:0609C0000994F894FFCF3A
:1009C60000FFFF0303FFFF0000F8FF8787FFF80023
:1009D60000FFFFFFE0E0E00000FFFFFF0000000077
:1009E600003F7CE0E07C3F0000FC3E07073EFC0049
:1009F60000FFFF0101FFFF0000FFFF8080FFFF00F7
:00000001FF
