:100000000C945D000C9485000C9485000C94850084
:100010000C9485000C9485000C9485000C9485004C
:100020000C9485000C9485000C9485000C9485003C
:100030000C9485000C9485000C9485000C9485002C
:100040000C9444020C9485000C94B4020C948E021F
:100050000C9485000C9485000C9485000C9485000C
:100060000C9485000C9485000000000024002700FB
:100070002A0000000000250028002B0004040404CE
:100080000404040402020202020203030303030342
:10009000010204081020408001020408102001021F
:1000A00004081020000000080002010000030407FB
:1000B0000000000000000000050411241FBECFEF67
:1000C000D8E0DEBFCDBF21E0A8E2B1E001C01D92C3
:1000D000A23DB207E1F711E0A0E0B1E0E8EDFCE0FD
:1000E00002C005900D92A832B107D9F710E0CDE516
:1000F000D0E004C02197FE010E946904CC35D107ED
:10010000C9F70E94E6020C946A060C940000E1EB29
:10011000F0E02491EDE9F0E09491E9E8F0E0E49179
:10012000EE23C9F0222339F0233001F1A8F4213065
:1001300019F1223029F1F0E0EE0FFF1FEE58FF4FCA
:10014000A591B4912FB7F894EC91811126C09095A8
:100150009E239C932FBF08952730A9F02830C9F023
:10016000243049F7209180002F7D03C0209180002A
:100170002F7720938000DFCF24B52F7724BDDBCFEE
:1001800024B52F7DFBCF2091B0002F772093B000B6
:10019000D2CF2091B0002F7DF9CF9E2BDACFAF9236
:1001A000BF92CF92DF92EF92FF920F931F93CF9364
:1001B000DF936C017B018B01040F151FEB015E01C6
:1001C000AE18BF08C017D10759F06991D601ED915B
:1001D000FC910190F081E02DC6010995892B79F7FA
:1001E000C501DF91CF911F910F91FF90EF90DF90AC
:1001F000CF90BF90AF900895FC01538D448D252F73
:1002000030E0842F90E0821B930B541710F0CF96B0
:10021000089501970895FC01918D828D981761F0E2
:10022000A28DAE0FBF2FB11D5D968C91928D9F5FF9
:100230009F73928F90E008958FEF9FEF08952FB7EF
:10024000F89480912D0190912E01A0912F01B091F1
:1002500030012FBF8093390190933A01A0933B0165
:10026000B0933C0181E391E00E940B0197FF26C00F
:100270002FB7F89480912D0190912E01A0912F011C
:10028000B09130012FBF4091390150913A016091F6
:100290003B0170913C01841B950BA60BB70B409161
:1002A0003501509136016091370170913801841702
:1002B0009507A607B707B0F28FEF9FEF0895FC01EF
:1002C000918D828D981731F0828DE80FF11D858D0B
:1002D00090E008958FEF9FEF0895FC01918D228D9E
:1002E000892F90E0805C9F4F821B91098F73992723
:1002F000089581E391E00E946D0121E0892B09F4CA
:1003000020E0822F089580E090E0892B29F00E9460
:10031000790181110C9400000895FC01A48DA80FAF
:10032000B92FB11DA35ABF4F2C91848D90E0019637
:100330008F739927848FA689B7892C93A089B18957
:100340008C91837080648C93938D848D981306C0F8
:100350000288F389E02D80818F7D80830895EF925C
:10036000FF920F931F93CF93DF93EC0181E0888F6F
:100370009B8D8C8D98131AC0E889F989808185FF3F
:1003800015C09FB7F894EE89FF896083E889F989E1
:1003900080818370806480839FBF81E090E0DF91E3
:1003A000CF911F910F91FF90EF900895F62E0B8D36
:1003B00010E00F5F1F4F0F731127E02E8C8D8E11F1
:1003C0000CC00FB607FCFACFE889F989808185FF58
:1003D000F5CFCE010E948D01F1CFEB8DEC0FFD2FFB
:1003E000F11DE35AFF4FF0829FB7F8940B8FEA8913
:1003F000FB8980818062CFCFCF93DF93EC01888D22
:100400008823B9F0AA89BB89E889F9898C9185FD8F
:1004100003C0808186FD0DC00FB607FCF7CF8C911D
:1004200085FFF2CF808185FFEDCFCE010E948D0147
:10043000E9CFDF91CF9108950F931F93CF93DF936F
:10044000EC0188819981009759F02A813B81261718
:10045000370730F081E0DF91CF911F910F91089520
:100460008B016F5F7F4F0E949405009759F099832D
:1004700088831B830A832C813D81232B59F7FC0140
:100480001082E8CF80E0E7CF1F920F920FB60F9255
:1004900011242F933F938F939F93AF93BF9380919A
:1004A0002D0190912E01A0912F01B091300130913A
:1004B0002C0123E0230F2D3758F50196A11DB11D06
:1004C00020932C0180932D0190932E01A0932F0156
:1004D000B09330018091280190912901A0912A01C7
:1004E000B0912B010196A11DB11D8093280190931D
:1004F0002901A0932A01B0932B01BF91AF919F9145
:100500008F913F912F910F900FBE0F901F901895D4
:1005100026E8230F0296A11DB11DD2CF1F920F9284
:100520000FB60F9211242F933F934F935F936F93C6
:100530007F938F939F93AF93BF93EF93FF9381E349
:1005400091E00E948D01FF91EF91BF91AF919F913A
:100550008F917F916F915F914F913F912F910F906C
:100560000FBE0F901F9018951F920F920FB60F920B
:1005700011242F938F939F93EF93FF93E091410169
:10058000F09142018081E0914701F091480182FDA4
:100590001BC0908180914A018F5F8F7320914B0126
:1005A000821741F0E0914A01F0E0EF5CFE4F958F39
:1005B00080934A01FF91EF919F918F912F910F901E
:1005C0000FBE0F901F9018958081F4CFCF93DF93CB
:1005D000CDB7DEB728970FB6F894DEBF0FBECDBFFC
:1005E000789484B5826084BD84B5816084BD85B50E
:1005F000826085BD85B5816085BD80916E0081601A
:1006000080936E00109281008091810082608093BF
:1006100081008091810081608093810080918000C1
:100620008160809380008091B10084608093B100EC
:100630008091B00081608093B00080917A008460E6
:1006400080937A0080917A00826080937A00809112
:100650007A00816080937A0080917A00806880932C
:100660007A001092C100E0914101F091420182E0D4
:100670008083E0913D01F0913E011082E0913F01C5
:10068000F09140018FEC808310924901E091450187
:10069000F091460186E08083E0914301F0914401AE
:1006A000808180618083E0914301F09144018081E9
:1006B00088608083E0914301F091440180818068EB
:1006C0008083E0914301F091440180818F7D80839C
:1006D000EDE9F0E02491E9E8F0E08491882399F0D5
:1006E00090E0880F991FFC01E859FF4FA591B49144
:1006F000FC01EE58FF4F859194918FB7F894EC91DF
:10070000E22BEC938FBF80E00E94870080E0E82E10
:1007100080E0F82E81E391E00E946D01892B09F4BD
:1007200068C01A8219821C821B821E821D8270E0A0
:1007300060E0CE0101960E941C0229813A8181115C
:100740002EC02115310519F0C9010E940B051A822E
:1007500019821E821D821C821B820E941F010D8134
:100760001E8197FD24C08A30910509F18F83188678
:100770000F5F1F4FB801CE0101960E941C02882313
:1007800061F329813A818D819E81BE01695F7F4F2E
:10079000820F931F0E9463061E830D83DECF1E828D
:1007A0001D8267E271E0C9010E946306D6CF012B6A
:1007B00059F068E171E089819A810E945A06892B7B
:1007C00019F481E00E9487008D819E81892B59F068
:1007D00061E271E089819A810E945A06892B19F49D
:1007E00080E00E94870089819A81009711F00E9421
:1007F0000B05E114F10409F48DCF0E9479018823DF
:1008000009F488CF0E94000085CFE1E3F1E0138274
:10081000128288EE93E0A0E0B0E084839583A68303
:10082000B7838AE091E09183808385EC90E095879F
:10083000848784EC90E09787868780EC90E0918BAA
:10084000808B81EC90E0938B828B82EC90E0958B97
:10085000848B86EC90E0978B868B118E128E138E94
:10086000148E08952F923F924F925F926F927F92D3
:100870008F929F92AF92BF92CF92DF92EF92FF92B0
:100880000F931F93CF93DF93CDB7DEB7CA1BDB0B5C
:100890000FB6F894DEBF0FBECDBF09942A88398801
:1008A00048885F846E847D848C849B84AA84B98408
:1008B000C884DF80EE80FD800C811B81AA81B98114
:1008C000CE0FD11D0FB6F894DEBF0FBECDBFED0128
:1008D0000895EE0FFF1F0590F491E02D09940F93FA
:1008E0001F93CF93DF938230910510F482E090E064
:1008F000E091D001F091D10130E020E0B0E0A0E043
:10090000309799F42115310509F44AC0281B390B99
:1009100024303105D8F58A819B816115710589F1F3
:10092000FB0193838283FE0111C0408151810281CA
:10093000138148175907E0F04817590799F41097A1
:1009400061F012960C93129713961C933296CF0176
:10095000DF91CF911F910F9108950093D0011093D3
:10096000D101F4CF2115310551F04217530738F06A
:10097000A901DB019A01BD01DF01F801C1CFEF013F
:10098000F9CF9093D1018093D001CDCFFE01E20F3A
:10099000F31F819391932250310939832883D7CF54
:1009A0002091CE013091CF01232B41F420910201FF
:1009B000309103013093CF012093CE0120910001AB
:1009C000309101012115310541F42DB73EB7409119
:1009D000040150910501241B350BE091CE01F091EB
:1009E000CF01E217F307A0F42E1B3F0B281739079E
:1009F00078F0AC014E5F5F4F2417350748F04E0F7B
:100A00005F1F5093CF014093CE01819391939FCF6D
:100A1000F0E0E0E09CCFCF93DF930097E9F0FC019A
:100A2000329713821282A091D001B091D101ED01D1
:100A300030E020E01097A1F420813181820F931FD4
:100A40002091CE013091CF012817390709F061C0FC
:100A5000F093CF01E093CE01DF91CF910895EA01A9
:100A6000CE17DF07E8F54A815B819E0141155105EC
:100A7000B1F7E901FB83EA8349915991C40FD51F6E
:100A8000EC17FD0761F4808191810296840F951F18
:100A9000E90199838883828193819B838A83F0E033
:100AA000E0E012968D919C9113970097B9F52D91E6
:100AB0003C911197CD010296820F931F2091CE0198
:100AC0003091CF012817390739F6309751F5109238
:100AD000D1011092D001B093CF01A093CE01BCCF31
:100AE000D383C28340815181840F951FC817D907D2
:100AF00061F44E5F5F4F88819981480F591F518380
:100B000040838A819B81938382832115310509F07B
:100B1000B0CFF093D101E093D0019ECFFD01DC0175
:100B2000C0CF13821282D7CFB0E0A0E0EAE9F5E0AF
:100B30000C9434048C01009751F4CB010E946F0493
:100B40008C01C801CDB7DEB7E0E10C945004FC0184
:100B5000E60FF71F9C0122503109E217F30708F452
:100B60009DC0D901CD91DC911197C617D70798F098
:100B7000C530D10530F3CE0104978617970708F3E7
:100B8000C61BD70B2297C193D1936D937C93CF0152
:100B90000E940B05D6CF5B01AC1ABD0A4C018C0E2E
:100BA0009D1EA091D001B091D101512C412CF12C6E
:100BB000E12C109731F58091CE019091CF018815ED
:100BC000990509F05CC04616570608F058C0809198
:100BD000000190910101009741F48DB79EB74091BB
:100BE000040150910501841B950BE817F90708F0E3
:100BF00055C0F093CF01E093CE01F901718360837A
:100C0000A0CF8D919C91119712966C90129713968C
:100C10007C901397A815B90559F56C0142E0C40EF4
:100C2000D11CCA14DB0420F1AC014A195B09DA01BA
:100C30001296159780F06282738251834083D901A6
:100C40006D937C93E114F10471F0D7011396FC933A
:100C5000EE93129776CF22968C0F9D1FF901918308
:100C60008083F301EFCFF093D101E093D00169CFFE
:100C70004816590608F42C017D01D3019ACFCB0107
:100C80000E946F047C01009749F0AE01B8010E94F8
:100C90005106C8010E940B05870153CF10E000E008
:100CA00050CFFB01DC0102C001900D924150504039
:100CB000D8F70895FB01DC018D9101908019011096
:100CC000D9F3990B0895FB01DC0101900D920020EE
:080CD000E1F70895F894FFCF4D
:100CD8000000D201800000000000AF01CF00FC003E
:100CE800FC016D010B015F01656E63656E646572E1
:080CF800006170616761720088
:00000001FF
